:100000000C942A000C9447000C9447000C94470071
:100010000C9447000C9420060C9447000C94470065
:100020000C9447000C9447000C9447000C94470034
:100030000C94F4050C9447000C9447000C94470072
:100040000C9447000C9447000C9447000C94470014
:100050000C94470011241FBECFE5D8E0DEBFCDBF12
:1000600010E0A0E6B0E0E8E4FAE102C005900D92ED
:10007000AC39B107D9F710E0ACE9B0E001C01D928E
:10008000A73CB107E1F70E9455070C94220D0C9490
:1000900000003E9A3F9A379A319A329A0895369ADA
:1000A0003699FECF84B190E045B1342F20E0822B09
:1000B000932B0895DC01CB01880F991FAA1FBB1F4A
:1000C000880F991FAA1FBB1F9C01AD01220F331F70
:1000D000441F551F220F331F441F551F60E072E15C
:1000E0008AE790E00E94000D2150304030BD29B9D0
:1000F0008AB188618AB980B5866880BD08955D9BA4
:10010000FECF8CB908955F9BFECF8CB10895CF933D
:10011000DF93EC018881882379F021960E947F008B
:100120008FE798E3A1E081509040A040E1F700C044
:1001300000008991882391F7DF91CF91089582E69D
:1001400064E041E00E94F00082E665E041E00E9448
:10015000F00082E666E040E00E94F00082E667E0A0
:1001600041E00E94F0006C9A6E9A82E664E041E001
:100170000E94810108956E9A6F9A82E666E041E0DE
:100180000E94F0000895CF93C82F82E640E00E94BD
:100190008101CFB9779BFECF8FB1CF9108958FB9F1
:1001A000779BFECF8FB108951F93CF93DF93EC0120
:1001B000162F8881882381F02196612F0E94C30029
:1001C0008FEF92E5A7E081509040A040E1F700C09A
:1001D00000008991882389F7DF91CF911F910895BD
:1001E000843409F471C0853448F4823499F183343D
:1001F00008F04DC0813409F083C00FC0823651F140
:10020000833620F4813609F07BC007C0833609F4B9
:100210003EC0843609F074C057C0413069F42AB337
:1002200081E090E0AC0102C0440F551F6A95E2F7EF
:10023000BA01622B6ABB08952AB381E090E0AC0159
:1002400002C0440F551F6A95E2F7BA016095622318
:100250006ABB0895413069F427B381E090E0AC01B6
:1002600002C0440F551F6A95E2F7BA01622B67BBC3
:10027000089527B381E090E0AC0102C0440F551F00
:100280006A95E2F7BA016095622367BB0895413031
:1002900069F424B381E090E0AC0102C0440F551F23
:1002A0006A95E2F7BA01622B64BB089524B381E03A
:1002B00090E0AC0102C0440F551F6A95E2F7BA0105
:1002C0006095622364BB0895413069F421B381E0F5
:1002D00090E0AC0102C0440F551F6A95E2F7BA01E5
:1002E000622B61BB089521B381E090E0AC0102C0B4
:1002F000440F551F6A95E2F7BA016095622361BB0E
:100300000895843409F471C0853448F4823499F135
:10031000833408F04DC0813409F083C00FC08236A9
:1003200051F1833620F4813609F07BC007C0833653
:1003300009F43EC0843609F074C057C0413069F4F6
:100340002BB381E090E0AC0102C0440F551F6A95C9
:10035000E2F7BA01622B6BBB08952BB381E090E00A
:10036000AC0102C0440F551F6A95E2F7BA016095CF
:1003700062236BBB0895413069F428B381E090E0BB
:10038000AC0102C0440F551F6A95E2F7BA01622B17
:1003900068BB089528B381E090E0AC0102C0440F2F
:1003A000551F6A95E2F7BA016095622368BB08950C
:1003B000413069F425B381E090E0AC0102C0440F04
:1003C000551F6A95E2F7BA01622B65BB089525B304
:1003D00081E090E0AC0102C0440F551F6A95E2F73E
:1003E000BA016095622365BB0895413069F422B378
:1003F00081E090E0AC0102C0440F551F6A95E2F71E
:10040000BA01622B62BB089522B381E090E0AC0197
:1004100002C0440F551F6A95E2F7BA016095622346
:1004200062BB0895843409F43DC0853440F48234BD
:10043000F9F0833450F5813409F040C00CC08236A5
:10044000B9F0833618F48136C9F505C08336E9F072
:100450008436A1F527C02BB381E090E0AC0102C047
:10046000440F551F6A95E2F7BA0162276BBB0895E6
:1004700028B381E090E0AC0102C0440F551F6A959B
:10048000E2F7BA01622768BB089525B381E090E0E6
:10049000AC0102C0440F551F6A95E2F7BA0162270A
:1004A00065BB089522B381E090E0AC0102C0440F27
:1004B000551F6A95E2F7BA01622762BB089584343A
:1004C00009F451C0853440F4823439F18334C0F5E5
:1004D000813409F05AC00EC08236F9F0833620F418
:1004E000813609F052C006C0833651F1843609F0D6
:1004F0004CC039C029B381E090E0062E02C0880FBD
:10050000991F0A94E2F730E08223932302C0969564
:1005100087956A95E2F7982F38C026B381E090E07E
:10052000062E02C0880F991F0A94E2F730E082235A
:10053000932302C0969587956A95E2F7982F25C078
:1005400023B381E090E0062E02C0880F991F0A9421
:10055000E2F730E08223932302C0969587956A954F
:10056000E2F7982F12C020B381E090E0062E02C07F
:10057000880F991F0A94E2F730E08223932302C088
:10058000969587956A95E2F7982F892F0895843478
:10059000D9F0853438F4823499F0833498F4813476
:1005A000A1F40CC0823661F0833618F4813669F408
:1005B00005C0833639F0843641F406C06ABB08951D
:1005C00067BB089564BB089561BB08958434D9F076
:1005D000853438F4823499F0833498F48134A1F46A
:1005E0000CC0823661F0833618F4813669F405C098
:1005F000833639F0843641F406C06BBB089568BB7E
:10060000089565BB089562BB0895843409F185346B
:1006100038F48234A9F08334B8F48134E1F40CC0A6
:10062000823671F0833618F48136A9F405C083361A
:1006300059F0843681F40CC08BB380958BBB089540
:1006400088B3809588BB089585B3809585BB089550
:1006500082B3809582BB08958434D9F0853438F410
:10066000823499F0833498F48134A1F40CC082363A
:1006700061F0833618F4813669F405C0833639F0A9
:10068000843641F406C08BB3089588B3089585B3CA
:10069000089582B30895843409F471C0853448F410
:1006A000823499F1833408F04DC0813409F083C05D
:1006B0000FC0823651F1833620F4813609F07BC0B9
:1006C00007C0833609F43EC0843609F074C057C0B1
:1006D000413069F42BB381E090E0AC0102C0440FDB
:1006E000551F6A95E2F7BA01622B6BBB08952BB3D5
:1006F00081E090E0AC0102C0440F551F6A95E2F71B
:10070000BA01609562236BBB0895413069F428B348
:1007100081E090E0AC0102C0440F551F6A95E2F7FA
:10072000BA01622B68BB089528B381E090E0AC0168
:1007300002C0440F551F6A95E2F7BA016095622323
:1007400068BB0895413069F425B381E090E0AC01C5
:1007500002C0440F551F6A95E2F7BA01622B65BBD0
:10076000089525B381E090E0AC0102C0440F551F0D
:100770006A95E2F7BA016095622365BB089541303E
:1007800069F422B381E090E0AC0102C0440F551F30
:100790006A95E2F7BA01622B62BB089522B381E049
:1007A00090E0AC0102C0440F551F6A95E2F7BA0110
:1007B0006095622362BB089583E664E041E00E9495
:1007C00081018FE99FE00197F1F700C0000083E607
:1007D00064E040E00E9481010895AF92BF92CF9201
:1007E000DF92EF92FF920F931F93CF93DF93C0E0BE
:1007F000D0E013E00F2EF7E0EF2EFF24F02DCC24F5
:10080000DD24C394A82EBB2403E0A7014C1B5D0B81
:10081000C601042E02C0880F991F0A94E2F78A21AC
:100820009B219C0102C0369527954A95E2F7A901C4
:1008300083E6612F0E948101C33021F0C73011F09F
:10084000115008C083E665E041E00E9481010E94EA
:10085000DC03102F2196C830D105B9F68FEC97E054
:100860000197F1F700C00000DF91CF911F910F9128
:10087000FF90EF90DF90CF90BF90AF900895AF9230
:10088000BF92CF92DF92EF92FF920F931F93CF937D
:10089000DF93C0E0D0E013E00F2EF7E0EF2EFF244F
:1008A000F02DCC24DD24C394A82EBB2403E0A701A3
:1008B0004C1B5D0BC601042E02C0880F991F0A94C1
:1008C000E2F78A219B219C0102C0369527954A9523
:1008D000E2F7A90183E6612F0E948101C33021F074
:1008E000C73011F0115008C083E665E040E00E9477
:1008F00081010E94DC03102F2196C830D105B9F682
:100900008FEC97E00197F1F700C00000DF91CF91E5
:100910001F910F91FF90EF90DF90CF90BF90AF901D
:10092000089581E00E943F048FE19EE40197F1F772
:1009300000C000000895CF938FE798E3A1E08150B5
:100940009040A040E1F700C00000C0E083E66C2FBB
:1009500041E00E94F000CF5FC430C1F783E664E05D
:1009600041E00E94F00083E665E041E00E94F00073
:1009700082E00E943F04AFE0B7E21197F1F700C0B8
:10098000000088E20E943F048EE00E943F0481E064
:100990000E943F048FE097E20197F1F700C000004A
:1009A00086E00E943F04CF910895982F9150923095
:1009B00020F4613110F4662321F480E80E943F04A2
:1009C0000895813029F4862F81580E943F040895AC
:1009D000823021F4862F81540E943F040895CF93E2
:1009E000DF93EC018881882331F021960E94ED038A
:1009F00089918823D9F7DF91CF910895262F372F3A
:100A0000220F331FA901440F551F440F551F240FF8
:100A1000351F90E0C097820F931F0895EF92FF92C9
:100A20000F931F93CF93DF937C01009721F480E312
:100A30000E94ED0340C08AE0E816F1042CF48E2DEC
:100A4000805D0E94ED0337C0C701C1E0D0E0EAE05D
:100A5000F0E0BF010E94ED0CCB019E01220F331F7D
:100A6000CC0FDD1FCC0FDD1FCC0FDD1FC20FD31F3E
:100A70006A30710574F7CA30D105ACF00AE010E0B5
:100A8000C701BE010E94ED0CCB01B8010E94ED0C24
:100A9000805D0E94ED03CE01B8010E94ED0CEB01D8
:100AA0006A3071056CF7C7016AE070E00E94ED0CD6
:100AB000805D0E94ED03DF91CF911F910F91FF9018
:100AC000EF90089541E00E94F000089540E00E94F8
:100AD000F0000895CF93DF93D82FC62F40E00E94F7
:100AE000F0008D2F6C2F41E00E944B03DF91CF91DE
:100AF0000895CF93DF93D82FC62F40E00E94F000D7
:100B00008D2F6C2F40E00E944B03DF91CF91089511
:100B100041E00E948101089540E00E948101089512
:100B20000E94120208950E945F0208956FEF0E94D2
:100B3000C7020895413041F4E0E6F0E0E60FF11D10
:100B400060810E94E6020895E0E6F0E0E60FF11D04
:100B5000608160950E94E60208951F93CF93DF9312
:100B6000182FC62FD62FDC5F812F6C2F41E00E94FB
:100B7000F000CF5FCD17C1F7DF91CF911F9108959E
:100B8000CF92DF92EF92FF920F931F93CF93DF9359
:100B9000082F162FC0E0D0E0EE24FF24E394C42EEB
:100BA000DD246C2F610FC7010C2E02C0880F991F26
:100BB0000A94E2F78C219D219C010C2E02C03695EF
:100BC00027950A94E2F7A901802F0E9481012196BE
:100BD000C430D10531F7DF91CF911F910F91FF9074
:100BE000EF90DF90CF9008951F920F920FB60F9263
:100BF00011242F933F934F935F936F937F938F9322
:100C00009F93AF93BF93EF93FF9381E00E94CF0038
:100C10008093C5008091AC008F5F8093AC00FF9102
:100C2000EF91BF91AF919F918F917F916F915F9164
:100C30004F913F912F910F900FBE0F901F901895DD
:100C40001F920F920FB60F9211248F938091C400C0
:100C50008F5F8093C4008F910F900FBE0F901F90F5
:100C60001895CF938091C400CAE06C2F0E94CD0CE0
:100C7000692F81E690E070E041E050E00E949A0523
:100C800082E663E040E00E9481018FEC97E00197EB
:100C9000F1F700C0000082E663E041E00E948101BC
:100CA0008091C4006C2F0E94CD0C682F81E690E0EB
:100CB00070E041E050E00E949A0582E662E040E088
:100CC0000E9481018FEC97E00197F1F700C00000CE
:100CD00082E662E041E00E9481018091C3006C2FB6
:100CE0000E94CD0C692F81E690E070E041E050E079
:100CF0000E949A0582E661E040E00E9481018FEC4B
:100D000097E00197F1F700C0000082E661E041E062
:100D10000E9481018091C3006C2F0E94CD0C682F2E
:100D200081E690E070E041E050E00E949A0582E6A2
:100D300060E040E00E9481018FEC97E00197F1F7BD
:100D400000C0000082E660E041E00E9481018091E5
:100D5000C2006C2F0E94CD0C692F81E690E070E0FC
:100D600041E050E00E949A0584E661E040E00E9484
:100D700081018FEC97E00197F1F700C0000084E655
:100D800061E041E00E9481018091C2006C2F0E94CD
:100D9000CD0C682F81E690E070E041E050E00E94C9
:100DA0009A0584E660E040E00E9481018FEC97E0C4
:100DB0000197F1F700C0000084E660E041E00E9486
:100DC00081018091C4008C3340F01092C400809166
:100DD000C3008F5F8093C30012C08091C3008C3327
:100DE00040F01092C3008091C2008F5F8093C200D8
:100DF00006C08091C200883110F01092C200CF91DD
:100E0000089581E061E00E94D5041092AC008FEF5C
:100E10000E94ED038091AC008F5F8093AC00803125
:100E2000B0F382E061E00E94D5041092AC008FEF35
:100E30000E94ED038091AC008F5F8093AC00803105
:100E4000B0F381E690E068E070E041E050E00E949D
:100E50009A0582E663E040E00E94810182E662E05A
:100E600040E00E94810182E661E040E00E94810151
:100E700082E660E040E00E94810184E661E040E0BB
:100E80000E94810184E660E040E00E9481018FEFD2
:100E900093E2A4EF81509040A040E1F700C0000031
:100EA0000E9431060E9491040895CF93DF9300D0F1
:100EB00000D000D0CDB7DEB70E94CE0A81E690E028
:100EC0000E94960584E660E041E00E94F00084E61E
:100ED00061E041E00E94F00082E660E041E00E94B3
:100EE000F00082E661E041E00E94F00082E662E00C
:100EF00041E00E94F00082E663E041E00E94F000E1
:100F00000E949B040E94BB00789484E662E040E06B
:100F10000E94F0008CE00E943F0488249924AA24B7
:100F2000BB240F2EFDEAEF2EF0E0FF2EF02D0F2E4A
:100F3000F8EB6F2EF0E07F2EF02D0F2EF7E74F2EFF
:100F4000F0E05F2EF02D0F2EF0E82F2EF0E03F2E78
:100F5000F02D24EB30E02F5F3F4F3A83298384EB61
:100F600090E002969C838B830F2EFCE0CF2EDD2435
:100F7000F02DCE0CDF1CA2EBB0E01196BE83AD834A
:100F80000E943106EFECF7E03197F1F700C0000066
:100F90008091AC00882359F09701280F311DC901B9
:100FA00001972091C500DC012C931092AA0081E0EA
:100FB0009091AA00911180E0882309F40EC181E08C
:100FC000F3019081903F09F080E0882309F405C186
:100FD0000E949104D7018C918E3E09F04BC08AE6A5
:100FE00090E00E94EF04E2EBF0E08081880F982F00
:100FF000990F990F890FAD81BE819C91890F8093C4
:10100000C4008091B000880F982F990F990F890F15
:101010009091B100890F8093C3008091AE00880F3A
:10102000982F990F990F890F9091AF00890F809396
:10103000C2000E943106E2EBF0E0359782EB90E0CF
:1010400007961192E817F907E1F71092AC0081E0DA
:101050008093AA008FEF99E6A8E181509040A040CC
:10106000E1F700C000000E94910488249924AA247A
:10107000BB24ABC091E08A3A09F090E09923A9F033
:1010800081E0AEEAB0E09C919A3A09F080E08823D2
:1010900061F00E940107F7011192EC15FD05E1F7DF
:1010A00088249924AA24BB2490C081E061E00E9496
:1010B000D504C2010E94EF0481E08093AC00AA2411
:1010C000BB24F701E80FF11D8081805D0E94ED03D4
:1010D0008091AC00F701E80FF11D8081805DB501C2
:1010E0000E94FE04A82EB92E8091AC008F5F8093E1
:1010F000AC00843030F382E061E00E94D504C1018D
:101100000E94EF0484E08093AC0088249924F701C6
:10111000E80FF11D8081805D0E94ED038091AC009D
:10112000F701E80FF11D8081805DB4010E94FE048B
:10113000882E992E8091AC008F5F8093AC00873011
:1011400030F3E4EBF0E040814093A700A981BA813D
:101150008C918093A600EB81FC8160816093A50057
:101160005091B7005093A40090E0ECE3F0E08E9F24
:1011700090018F9F300D9E9F300D1124C901840F67
:10118000911DAA2797FDA095BA2F8093A000909358
:10119000A100A093A200B093A300852F90E08E9FA2
:1011A00090018F9F300D9E9F300D1124C901860F35
:1011B000911DAA2797FDA095BA2F80939C0090932C
:1011C0009D00A0939E00B0939F001092AC0081E020
:1011D0008093AA008FEFD3018C93F701408121E027
:1011E00083858F3F09F020E03091AA0061E070E034
:1011F000313011F060E070E081E04D3D09F080E0B9
:10120000822390E0862397230097D1F0B50180E0F8
:1012100090E00E94DC0B0E94DC0AB40180E090E0C8
:101220000E94DC0B0E94150BF7011192EC15FD05D5
:10123000E1F71092AC0088249924AA24BB24A0CE04
:10124000E1E04E3D09F0E0E0E223F0E081E090E0F3
:10125000332311F480E090E08E239F23009709F45C
:101260004EC13F5F3093AA008091A0009091A100F1
:10127000A091A200B091A3000097A105B10591F142
:101280004091A7008091A60090E02CE330E0829F7F
:10129000B001839F700D929F700D1124640F711D1A
:1012A000C5010E94D90C8091A900680F6093A90024
:1012B00070E080E090E00E94DC0B0E94DC0A8091EC
:1012C000A0009091A100A091A200B091A30001976D
:1012D000A109B1098093A0009093A100A093A2005E
:1012E000B093A30080919C0090919D00A0919E00DE
:1012F000B0919F000097A105B10591F14091A50023
:101300008091A40090E02CE330E0829FB001839FA5
:10131000700D929F700D1124640F711DC4010E9405
:10132000D90C8091A800680F6093A80070E080E05D
:1013300090E00E94DC0B0E94150B80919C00909124
:101340009D00A0919E00B0919F000197A109B10955
:1013500080939C0090939D00A0939E00B0939F006B
:101360008091AA00813081F40E94910481E061E0C3
:101370000E94D504C2010E94EF0482E061E00E9455
:10138000D504C1010E94EF0481E069E00E94D50408
:1013900080E20E94ED038091A90090E00E940E057A
:1013A00080E20E94ED0382E069E00E94D50480E2C1
:1013B0000E94ED038091A80090E00E940E0580E25B
:1013C0000E94ED0321E08091A0009091A100A091E6
:1013D000A200B091A3000097A105B10509F020E09B
:1013E000222339F121E080919C0090919D00A091F1
:1013F0009E00B0919F000097A105B10509F020E083
:101400002223B9F0F7011192EC15FD05E1F71092D6
:10141000AC001092A7001092A5001092A6001092A6
:10142000A4001092A9001092A80088249924AA244C
:10143000BB246091C4008091C20090E020E13EE0B6
:10144000829FF001839FF00D929FF00D11248091F7
:10145000C30090E02CE330E0829FA001839F500DF9
:10146000929F500D1124CF01840F951F860F911D5F
:10147000AA2797FDA095BA2F8093BD009093BE0038
:10148000A093BF00B093C0000CE310E00E943106AF
:101490004091C4008091C20090E020E13EE0829F34
:1014A000B001839F700D929F700D11248091C30035
:1014B00090E0809F9001819F300D909F300D11240E
:1014C000CB01820F931F840F911DAA2797FDA09532
:1014D000BA2F8093B9009093BA00A093BB00B09349
:1014E000BC004091BD005091BE006091BF00709162
:1014F000C00084179507A607B70741F241CD81E0E8
:101500004C3D09F080E0822390E0862397230097EA
:1015100041F160E070E0CB010E94DC0A60E070E025
:10152000CB010E94150B0E949104C2010E94EF049E
:1015300080E30E94ED0382E061E00E94D504C101D6
:101540000E94EF0480E30E94ED03F7011192EC1575
:10155000FD05E1F71092AC0088249924AA24BB244D
:101560000FCD81E04F3D09F080E0822390E086239B
:101570009723009709F404CD0E94910489E890E034
:101580000E94EF04F7011192EC15FD05E1F71092AE
:10159000AC0088249924AA24BB24F2CC82B58860AC
:1015A00082BD85B5816085BD85B5846085BD789433
:1015B00089B7806489BF089521E63BE046EB5BE391
:1015C0000E946A0C8D9A8C9A2FB52E7F2FBD2FB555
:1015D00022602FBD2EB528602EBD2EB520612EBDF8
:1015E000462F572F682F792FCB01BA0120E030E02A
:1015F00040EC5FE30E944C0B20E030E04AE754E40B
:101600000E946A0C0E94B00BDC01CB019BBD8ABD1D
:1016100099BD88BD8FE19EE497BD86BD8EB5826081
:101620008EBD8FB580688FBD089521E63BE046EB07
:101630005BE30E946A0C8C9A2FB52E7F2FBD2FB5CD
:1016400022602FBD2EB528602EBD2EB520612EBD87
:10165000462F572F682F792FCB01BA0120E030E0B9
:1016600040EC5FE30E944C0B20E030E04AE754E49A
:101670000E946A0C0E94B00BDC01CB0199BD88BDB1
:101680008FE19EE497BD86BD8EB582608EBD8FB51D
:1016900080628FBD08955058BB27AA270ED0E0C0A6
:1016A000D1D030F0D6D020F031F49F3F11F41EF4A9
:1016B000C6C00EF4E095E7FBBCC0E92FE2D080F392
:1016C000BA17620773078407950718F071F49EF53F
:1016D000FAC00EF4E0950B2EBA2FA02D0B01B90124
:1016E00090010C01CA01A0011124FF27591B99F098
:1016F000593F50F4503E68F11A16F040A22F232FA4
:10170000342F4427585FF3CF469537952795A795F3
:10171000F0405395C9F77EF41F16BA0B620B730B9A
:10172000840BBAF09150A1F0FF0FBB1F661F771F0B
:10173000881FC2F70EC0BA0F621F731F841F48F4C0
:10174000879577956795B795F7959E3F08F0B3CF46
:101750009395880F08F09927EE0F97958795089530
:1017600098D088F09F5790F0B92F9927B751A0F0E3
:10177000D1F0660F771F881F991F1AF0BA95C9F725
:1017800012C0B13081F09FD0B1E008959CC0672FA6
:10179000782F8827B85F39F0B93FCCF386957795D5
:1017A0006795B395D9F73EF49095809570956195BE
:1017B0007F4F8F4F9F4F0895E89409C097FB3EF4E9
:1017C00090958095709561957F4F8F4F9F4F99238E
:1017D000A9F0F92F96E9BB279395F695879577950C
:1017E0006795B795F111F8CFFAF4BB0F11F460FFCC
:1017F0001BC06F5F7F4F8F4F9F4F16C0882311F024
:1018000096E911C0772321F09EE8872F762F05C037
:10181000662371F096E8862F70E060E02AF09A95D2
:10182000660F771F881FDAF7880F9695879597F9C7
:10183000089597F99F6780E870E060E008959FEF52
:1018400080EC089500240A94161617061806090657
:10185000089500240A941216130614060506089526
:10186000092E0394000C11F4882352F0BB0F40F4AE
:10187000BF2B11F460FF04C06F5F7F4F8F4F9F4FEE
:10188000089557FD9058440F551F59F05F3F71F070
:101890004795880F97FB991F61F09F3F79F08795D7
:1018A0000895121613061406551FF2CF4695F1DF60
:1018B00008C0161617061806991FF1CF86957105F0
:1018C000610508940895E894BB2766277727CB0124
:1018D00097F908950BD0C4CFB5DF28F0BADF18F020
:1018E000952309F0A6CFABCF1124EECFCADFA0F32A
:1018F000959FD1F3950F50E0551F629FF001729FA5
:10190000BB27F00DB11D639FAA27F00DB11DAA1FC3
:10191000649F6627B00DA11D661F829F2227B00D10
:10192000A11D621F739FB00DA11D621F839FA00D9B
:10193000611D221F749F3327A00D611D231F849FEB
:10194000600D211D822F762F6A2F11249F57504042
:101950008AF0E1F088234AF0EE0FFF1FBB1F661FDD
:10196000771F881F91505040A9F79E3F510570F096
:1019700060CFAACF5F3FECF3983EDCF38695779576
:101980006795B795F795E7959F5FC1F7FE2B880F91
:10199000911D9695879597F90895991B79E004C054
:1019A000991F961708F0961B881F7A95C9F780959E
:1019B0000895AA1BBB1B51E107C0AA1FBB1FA61796
:1019C000B70710F0A61BB70B881F991F5A95A9F7E8
:1019D00080959095BC01CD01089597FB092E0726AF
:1019E0000AD077FD04D0E5DF06D000201AF4709508
:1019F00061957F4F0895F6F7909581959F4F0895D3
:101A0000A1E21A2EAA1BBB1BFD010DC0AA1FBB1F02
:101A1000EE1FFF1FA217B307E407F50720F0A21B74
:101A2000B30BE40BF50B661F771F881F991F1A94E1
:101A300069F760957095809590959B01AC01BD010B
:081A4000CF010895F894FFCFD7
:101A48003F065B4F666D7D077F6F73657474696EC3
:101A5800672074696D6500646567726565313A0071
:101A6800646567726565323A004E6F74205375700D
:0C1A7800706F7274656420796574000062
:00000001FF
