S00E0000536C617665312E73726563EA
S11300000C942A000C9447000C9447000C9447006D
S11300100C9447000C9447000C9447000C94470040
S11300200C9447000C9447000C9447000C94470030
S11300300C9485060C9447000C9447000C944700DC
S11300400C9447000C9447000C9447000C94470010
S11300500C94470011241FBECFE5D8E0DEBFCDBF0E
S113006010E0A0E6B0E0E6EFF1E102C005900D92E9
S1130070A636B107D9F710E0A6E6B0E001C01D929C
S1130080A836B107E1F70E9497050C94F9080C947F
S113009000003E9A3F9A3C9A379A319A329A0895D0
S11300A0369A3699FECF84B190E045B1342F20E0E2
S11300B0822B932B0895DC01CB01880F991FAA1F73
S11300C0BB1F880F991FAA1FBB1F9C01AD01220FE4
S11300D0331F441F551F220F331F441F551F60E059
S11300E072E18AE790E00E94C3082150304030BD9D
S11300F029B98AB188618AB980B5866880BD0895B6
S11301005D9BFECF8CB908955F9BFECF8CB10895A3
S1130110CF93DF93EC018881882379F021960E94A4
S113012080008FE798E3A1E081509040A040E1F780
S113013000C000008991882391F7DF91CF91089541
S113014082E664E041E00E94F10082E665E041E07D
S11301500E94F10082E666E040E00E94F10082E63F
S113016067E041E00E94F1006C9A6E9A82E664E0D6
S113017041E00E94820108956E9A6F9A82E666E0D9
S113018041E00E94F1000895CF93C82F82E640E039
S11301900E948201CFB9779BFECF8FB1CF91089592
S11301A08FB9779BFECF8FB108951F93CF93DF93C1
S11301B0EC01162F8881882381F02196612F0E94FB
S11301C0C4008FEF92E5A7E081509040A040E1F792
S11301D000C000008991882389F7DF91CF911F9196
S11301E00895843409F471C0853448F4823499F153
S11301F0833408F04DC0813409F083C00FC08236C7
S113020051F1833620F4813609F07BC007C0833670
S113021009F43EC0843609F074C057C0413069F413
S11302202AB381E090E0AC0102C0440F551F6A95E7
S1130230E2F7BA01622B6ABB08952AB381E090E029
S1130240AC0102C0440F551F6A95E2F7BA016095EC
S113025062236ABB0895413069F427B381E090E0DA
S1130260AC0102C0440F551F6A95E2F7BA01622B34
S113027067BB089527B381E090E0AC0102C0440F4E
S1130280551F6A95E2F7BA016095622367BB08952A
S1130290413069F424B381E090E0AC0102C0440F22
S11302A0551F6A95E2F7BA01622B64BB089524B323
S11302B081E090E0AC0102C0440F551F6A95E2F75B
S11302C0BA016095622364BB0895413069F421B397
S11302D081E090E0AC0102C0440F551F6A95E2F73B
S11302E0BA01622B61BB089521B381E090E0AC01B7
S11302F002C0440F551F6A95E2F7BA016095622364
S113030061BB0895843409F471C0853448F482349F
S113031099F1833408F04DC0813409F083C00FC0D3
S1130320823651F1833620F4813609F07BC007C050
S1130330833609F43EC0843609F074C057C0413096
S113034069F42BB381E090E0AC0102C0440F551F67
S11303506A95E2F7BA01622B6BBB08952BB381E077
S113036090E0AC0102C0440F551F6A95E2F7BA0150
S1130370609562236BBB0895413069F428B381E032
S113038090E0AC0102C0440F551F6A95E2F7BA0130
S1130390622B68BB089528B381E090E0AC0102C0F1
S11303A0440F551F6A95E2F7BA016095622368BB52
S11303B00895413069F425B381E090E0AC0102C0B6
S11303C0440F551F6A95E2F7BA01622B65BB089585
S11303D025B381E090E0AC0102C0440F551F6A953B
S11303E0E2F7BA016095622365BB0895413069F470
S11303F022B381E090E0AC0102C0440F551F6A951E
S1130400E2F7BA01622B62BB089522B381E090E067
S1130410AC0102C0440F551F6A95E2F7BA0160951A
S1130420622362BB0895843409F43DC0853440F4EA
S11304308234F9F0833450F5813409F040C00CC0A3
S11304408236B9F0833618F48136C9F505C083368F
S1130450E9F08436A1F527C02BB381E090E0AC012C
S113046002C0440F551F6A95E2F7BA0162276BBBBD
S1130470089528B381E090E0AC0102C0440F551FF9
S11304806A95E2F7BA01622768BB089525B381E053
S113049090E0AC0102C0440F551F6A95E2F7BA011F
S11304A0622765BB089522B381E090E0AC0102C0ED
S11304B0440F551F6A95E2F7BA01622762BB08959B
S11304C0843409F451C0853440F4823439F18334DE
S11304D0C0F5813409F05AC00EC08236F9F0833673
S11304E020F4813609F052C006C0833651F18436B7
S11304F009F04CC039C029B381E090E0062E02C057
S1130500880F991F0A94E2F730E08223932302C0F4
S1130510969587956A95E2F7982F38C026B381E0BF
S113052090E0062E02C0880F991F0A94E2F730E08B
S11305308223932302C0969587956A95E2F7982FB4
S113054025C023B381E090E0062E02C0880F991FD6
S11305500A94E2F730E08223932302C096958795AC
S11305606A95E2F7982F12C020B381E090E0062E3E
S113057002C0880F991F0A94E2F730E08223932384
S113058002C0969587956A95E2F7982F892F08956A
S11305908434D9F0853438F4823499F0833498F46F
S11305A08134A1F40CC0823661F0833618F48136AC
S11305B069F405C0833639F0843641F406C06ABB59
S11305C0089567BB089564BB089561BB089584349E
S11305D0D9F0853438F4823499F0833498F4813432
S11305E0A1F40CC0823661F0833618F4813669F4C4
S11305F005C0833639F0843641F406C06BBB0895D8
S113060068BB089565BB089562BB0895843409F1FD
S1130610853438F48234A9F08334B8F48134E1F4B5
S11306200CC0823671F0833618F48136A9F405C003
S1130630833659F0843681F40CC08BB380958BBB20
S1130640089588B3809588BB089585B3809585BB4C
S1130650089582B3809582BB08958434D9F085349B
S113066038F4823499F0833498F48134A1F40CC0C2
S1130670823661F0833618F4813669F405C0833616
S113068039F0843641F406C08BB3089588B30895D5
S113069085B3089582B30895843409F471C0853410
S11306A048F4823499F1833408F04DC0813409F060
S11306B083C00FC0823651F1833620F4813609F0AD
S11306C07BC007C0833609F43EC0843609F074C089
S11306D057C0413069F42BB381E090E0AC0102C013
S11306E0440F551F6A95E2F7BA01622B6BBB08955C
S11306F02BB381E090E0AC0102C0440F551F6A9512
S1130700E2F7BA01609562236BBB0895413069F446
S113071028B381E090E0AC0102C0440F551F6A95F4
S1130720E2F7BA01622B68BB089528B381E090E038
S1130730AC0102C0440F551F6A95E2F7BA016095F7
S1130740622368BB0895413069F425B381E090E0E9
S1130750AC0102C0440F551F6A95E2F7BA01622B3F
S113076065BB089525B381E090E0AC0102C0440F5D
S1130770551F6A95E2F7BA016095622365BB089537
S1130780413069F422B381E090E0AC0102C0440F2F
S1130790551F6A95E2F7BA01622B62BB089522B332
S11307A081E090E0AC0102C0440F551F6A95E2F766
S11307B0BA016095622362BB089583E664E041E078
S11307C00E9482018FE99FE00197F1F700C00000C9
S11307D083E664E040E00E9482010895AF92BF92F4
S11307E0CF92DF92EF92FF920F931F93CF93DF93F9
S11307F0C0E0D0E013E00F2EF7E0EF2EFF24F02D41
S1130800CC24DD24C394A82EBB2403E0A7014C1BF5
S11308105D0BC601042E02C0880F991F0A94E2F7EB
S11308208A219B219C0102C0369527954A95E2F7BF
S1130830A90183E6612F0E948201C33021F0C730F1
S113084011F0115008C083E665E041E00E94820186
S11308500E94DD03102F2196C830D105B9F68FEC24
S113086097E00197F1F700C00000DF91CF911F914D
S11308700F91FF90EF90DF90CF90BF90AF900895CD
S1130880AF92BF92CF92DF92EF92FF920F931F939A
S1130890CF93DF93C0E0D0E013E00F2EF7E0EF2E0C
S11308A0FF24F02DCC24DD24C394A82EBB2403E024
S11308B0A7014C1B5D0BC601042E02C0880F991FB3
S11308C00A94E2F78A219B219C0102C03695279560
S11308D04A95E2F7A90183E6612F0E948201C330A1
S11308E021F0C73011F0115008C083E665E040E004
S11308F00E9482010E94DD03102F2196C830D10589
S1130900B9F68FEC97E00197F1F700C00000DF9192
S1130910CF911F910F91FF90EF90DF90CF90BF90F8
S1130920AF90089581E00E9440048FE19EE4019716
S1130930F1F700C000000895CF938FE798E3A1E09A
S113094081509040A040E1F700C00000C0E083E681
S11309506C2F41E00E94F100CF5FC430C1F783E601
S113096064E041E00E94F10083E665E041E00E941A
S1130970F10082E00E944004AFE0B7E21197F1F782
S113098000C0000088E20E9440048EE00E944004FF
S113099081E00E9440048FE097E20197F1F700C0E4
S11309A0000086E00E944004CF910895982F915052
S11309B0923020F4613110F4662321F480E80E941F
S11309C040040895813029F4862F81580E94400400
S11309D00895823021F4862F81540E9440040895A2
S11309E0CF93DF93EC018881882331F021960E9414
S11309F0EE0389918823D9F7DF91CF910895262FAB
S1130A00372F220F331FA901440F551F440F551FC1
S1130A10240F351F90E0C097820F931F0895EF9223
S1130A20FF920F931F93CF93DF937C01009721F4E0
S1130A3080E30E94EE0340C08AE0E816F1042CF43F
S1130A408E2D805D0E94EE0337C0C701C1E0D0E067
S1130A50EAE0F0E0BF010E94B008CB019E01220F42
S1130A60331FCC0FDD1FCC0FDD1FCC0FDD1FC20FDA
S1130A70D31F6A30710574F7CA30D105ACF00AE0AF
S1130A8010E0C701BE010E94B008CB01B8010E946A
S1130A90B008805D0E94EE03CE01B8010E94B00848
S1130AA0EB016A3071056CF7C7016AE070E00E94DF
S1130AB0B008805D0E94EE03DF91CF911F910F91EA
S1130AC0FF90EF90089541E00E94F100089540E006
S1130AD00E94F1000895CF93DF93D82FC62F40E0F2
S1130AE00E94F1008D2F6C2F41E00E944C03DF9196
S1130AF0CF910895CF93DF93D82FC62F40E00E9463
S1130B00F1008D2F6C2F40E00E944C03DF91CF91B8
S1130B10089541E00E948201089540E00E9482010C
S1130B2008950E94130208950E94600208950E948D
S1130B309C040E9449000E94BC0078948CE00E94AE
S1130B40400480E690E00E94F00484E667E041E01F
S1130B500E94F10084E667E040E00E94820181E6A1
S1130B6062E00E94630581E663E00E94630581E61A
S1130B7064E00E9463050F2EFAE0EF2EFF24F02DAF
S1130B800F2EF8EECF2EF3E0DF2EF02DBB24689469
S1130B90B4F80F2EF0E68F2EF0E09F2EF02D0E9479
S1130BA05000BC0180E090E00E94BF0720E030E0EC
S1130BB040E250E40E944D080E948E07DC01CB0104
S1130BC0EC0181E066E00E94D60423E0C83ED2072F
S1130BD0CCF0CE01885E9340B7010E94B008862F06
S1130BE0972FC62FD72F0E940F058FED0E94EE037B
S1130BF083E40E94EE0380E20E94EE0380E20E94FE
S1130C00EE031AC0C6018C1B9D0BB7010E94B008ED
S1130C10162F072FC62FD72F8DE20E94EE03812FA8
S1130C20902F0E940F058FED0E94EE0383E40E9433
S1130C30EE0380E20E94EE03CE01C2978A30910552
S1130C4048F481E662E00E94890581E664E00E943E
S1130C508D0519C0CC33D10574F081E662E00E94A1
S1130C60890581E663E00E94890584E667E041E046
S1130C700E94820108C081E662E00E948D0581E63F
S1130C8064E00E948905809166008A3A09F087CF62
S1130C9081E662E00E94890581E663E00E9489059D
S1130CA081E664E00E94890581E061E00E94D60447
S1130CB0CB2D8FEF0E94EE03C150D9F782E061E0A3
S1130CC00E94D604CB2D8FEF0E94EE03C150D9F7BA
S1130CD08FEF93E2A4EF81509040A040E1F700C071
S1130CE0000081E662E00E948D0581E663E00E94D7
S1130CF08D0581E664E00E948D050E949204C40182
S1130D000E94F004109266004ACF1F920F920FB611
S1130D100F9211242F933F934F935F936F937F937D
S1130D208F939F93AF93BF93EF93FF9381E00E94C0
S1130D30D00080936600FF91EF91BF91AF919F9196
S1130D408F917F916F915F914F913F912F910F9070
S1130D500FBE0F901F90189582B5886082BD85B52F
S1130D60816085BD85B5846085BD789489B78064CC
S1130D7089BF089521E63BE046EB5BE30E944D0802
S1130D808D9A8C9A2FB52E7F2FBD2FB522602FBD43
S1130D902EB528602EBD2EB520612EBD462F572FAF
S1130DA0682F792FCB01BA0120E030E040EC5FE3FB
S1130DB00E942A0720E030E04AE754E40E944D08EC
S1130DC00E949307DC01CB019BBD8ABD99BD88BD00
S1130DD08FE19EE497BD86BD8EB582608EBD8FB5D2
S1130DE080688FBD089521E63BE046EB5BE30E94FB
S1130DF04D088C9A2FB52E7F2FBD2FB522602FBDA5
S1130E002EB528602EBD2EB520612EBD462F572F3E
S1130E10682F792FCB01BA0120E030E040EC5FE38A
S1130E200E942A0720E030E04AE754E40E944D087B
S1130E300E949307DC01CB0199BD88BD8FE19EE43C
S1130E4097BD86BD8EB582608EBD8FB580628FBD25
S1130E5008955058BB27AA270ED0E5C0D6D030F04D
S1130E60DBD020F031F49F3F11F41EF4CBC00EF41C
S1130E70E095E7FBC1C0E92FE7D080F3BA1762071A
S1130E8073078407950718F071F49EF5FFC00EF4FC
S1130E90E0950B2EBA2FA02D0B01B90190010C0186
S1130EA0CA01A0011124FF27591B99F0593F50F49E
S1130EB0503E68F11A16F040A22F232F342F4427F6
S1130EC0585FF3CF469537952795A795F0405395EE
S1130ED0C9F77EF41F16BA0B620B730B840BBAF0BE
S1130EE09150A1F0FF0FBB1F661F771F881FC2F729
S1130EF00EC0BA0F621F731F841F48F4879577953D
S1130F006795B795F7959E3F08F0B3CF9395880FF3
S1130F1008F09927EE0F97958795089504D0689463
S1130F20B111B5C0089598D088F09F5790F0B92FAB
S1130F309927B751A0F0D1F0660F771F881F991F2A
S1130F401AF0BA95C9F712C0B13081F09FD0B1E060
S1130F5008959CC0672F782F8827B85F39F0B93F70
S1130F60CCF3869577956795B395D9F73EF490952C
S1130F708095709561957F4F8F4F9F4F0895E894AA
S1130F8009C097FB3EF490958095709561957F4FCD
S1130F908F4F9F4F9923A9F0F92F96E9BB2793957B
S1130FA0F695879577956795B795F111F8CFFAF48B
S1130FB0BB0F11F460FF1BC06F5F7F4F8F4F9F4FBC
S1130FC016C0882311F096E911C0772321F09EE81A
S1130FD0872F762F05C0662371F096E8862F70E080
S1130FE060E02AF09A95660F771F881FDAF7880F5A
S1130FF09695879597F9089597F99F6780E870E02B
S113100060E008959FEF80EC089500240A9416167A
S1131010170618060906089500240A9412161306E2
S1131020140605060895092E0394000C11F4882370
S113103052F0BB0F40F4BF2B11F460FF04C06F5F8C
S11310407F4F8F4F9F4F089557FD9058440F551F62
S113105059F05F3F71F04795880F97FB991F61F036
S11310609F3F79F087950895121613061406551FAD
S1131070F2CF4695F1DF08C0161617061806991F19
S1131080F1CF86957105610508940895E894BB270E
S113109066277727CB0197F908950BD0C4CFB5DF26
S11310A028F0BADF18F0952309F0A6CFABCF1124AE
S11310B0EECFCADFA0F3959FD1F3950F50E0551FF3
S11310C0629FF001729FBB27F00DB11D639FAA2799
S11310D0F00DB11DAA1F649F6627B00DA11D661FE8
S11310E0829F2227B00DA11D621F739FB00DA11D09
S11310F0621F839FA00D611D221F749F3327A00DC3
S1131100611D231F849F600D211D822F762F6A2F5E
S113111011249F5750408AF0E1F088234AF0EE0FE3
S1131120FF1FBB1F661F771F881F91505040A9F7F0
S11311309E3F510570F060CFAACF5F3FECF3983E1D
S1131140DCF3869577956795B795F795E7959F5F57
S1131150C1F7FE2B880F911D9695879597F90895F1
S113116097FB092E07260AD077FD04D02ED006D08F
S113117000201AF4709561957F4F0895F6F79095C5
S113118081959F4F0895A1E21A2EAA1BBB1BFD0156
S11311900DC0AA1FBB1FEE1FFF1FA217B307E40752
S11311A0F50720F0A21BB30BE40BF50B661F771FAA
S11311B0881F991F1A9469F760957095809590958A
S11311C09B01AC01BD01CF010895AA1BBB1B51E1DA
S11311D007C0AA1FBB1FA617B70710F0A61BB70BA3
S11311E0881F991F5A95A9F780959095BC01CD0148
S10911F00895F894FFCFFE
S10911F654454D503A007F
S9030000FC
