S012000054656D705F4D657465722E7372656320
S11300000C942A000C9447000C9447000C9447006D
S11300100C9447000C9447000C9447000C94470040
S11300200C9447000C9447000C9447000C94470030
S11300300C9447000C9447000C9447000C94470020
S11300400C9447000C9447000C9447000C94470010
S11300500C94470011241FBECFE5D8E0DEBFCDBF0E
S113006010E0A0E6B0E0E0EEFCE002C005900D92E6
S1130070A636B107D9F710E0A6E6B0E001C01D929C
S1130080A636B107E1F70E94CD040C946E060C94D9
S113009000003E9A3F9A3C9A379A319A329A0895D0
S11300A0369A3699FECF84B190E045B1342F20E0E2
S11300B0822B932B0895843409F471C0853448F459
S11300C0823499F1833408F04DC0813409F083C03F
S11300D00FC0823651F1833620F4813609F07BC09B
S11300E007C0833609F43EC0843609F074C057C093
S11300F0413069F42AB381E090E0AC0102C0440FBE
S1130100551F6A95E2F7BA01622B6ABB08952AB3B8
S113011081E090E0AC0102C0440F551F6A95E2F7FC
S1130120BA01609562236ABB0895413069F427B32C
S113013081E090E0AC0102C0440F551F6A95E2F7DC
S1130140BA01622B67BB089527B381E090E0AC014C
S113015002C0440F551F6A95E2F7BA016095622305
S113016067BB0895413069F424B381E090E0AC01A9
S113017002C0440F551F6A95E2F7BA01622B64BBB3
S1130180089524B381E090E0AC0102C0440F551FF0
S11301906A95E2F7BA016095622364BB0895413021
S11301A069F421B381E090E0AC0102C0440F551F13
S11301B06A95E2F7BA01622B61BB089521B381E02D
S11301C090E0AC0102C0440F551F6A95E2F7BA01F2
S11301D06095622361BB0895843409F471C0853449
S11301E048F4823499F1833408F04DC0813409F025
S11301F083C00FC0823651F1833620F4813609F072
S11302007BC007C0833609F43EC0843609F074C04D
S113021057C0413069F42BB381E090E0AC0102C0D7
S1130220440F551F6A95E2F7BA01622B6BBB089520
S11302302BB381E090E0AC0102C0440F551F6A95D6
S1130240E2F7BA01609562236BBB0895413069F40B
S113025028B381E090E0AC0102C0440F551F6A95B9
S1130260E2F7BA01622B68BB089528B381E090E0FD
S1130270AC0102C0440F551F6A95E2F7BA016095BC
S1130280622368BB0895413069F425B381E090E0AE
S1130290AC0102C0440F551F6A95E2F7BA01622B04
S11302A065BB089525B381E090E0AC0102C0440F22
S11302B0551F6A95E2F7BA016095622365BB0895FC
S11302C0413069F422B381E090E0AC0102C0440FF4
S11302D0551F6A95E2F7BA01622B62BB089522B3F7
S11302E081E090E0AC0102C0440F551F6A95E2F72B
S11302F0BA016095622362BB0895843409F43DC059
S1130300853440F48234F9F0833450F5813409F0B3
S113031040C00CC08236B9F0833618F48136C9F572
S113032005C08336E9F08436A1F527C02BB381E0FC
S113033090E0AC0102C0440F551F6A95E2F7BA0180
S113034062276BBB089528B381E090E0AC0102C042
S1130350440F551F6A95E2F7BA01622768BB0895F6
S113036025B381E090E0AC0102C0440F551F6A95AB
S1130370E2F7BA01622765BB089522B381E090E0F9
S1130380AC0102C0440F551F6A95E2F7BA01622717
S113039062BB0895843409F451C0853440F4823436
S11303A039F18334C0F5813409F05AC00EC0823665
S11303B0F9F0833620F4813609F052C006C0833642
S11303C051F1843609F04CC039C029B381E090E082
S11303D0062E02C0880F991F0A94E2F730E08223A8
S11303E0932302C0969587956A95E2F7982F38C0B3
S11303F026B381E090E0062E02C0880F991F0A946C
S1130400E2F730E08223932302C0969587956A959C
S1130410E2F7982F25C023B381E090E0062E02C0B6
S1130420880F991F0A94E2F730E08223932302C0D5
S1130430969587956A95E2F7982F12C020B381E0CC
S113044090E0062E02C0880F991F0A94E2F730E06C
S11304508223932302C0969587956A95E2F7982F95
S1130460892F08958434D9F0853438F4823499F08E
S1130470833498F48134A1F40CC0823661F083365D
S113048018F4813669F405C0833639F0843641F4B2
S113049006C06ABB089567BB089564BB089561BB39
S11304A008958434D9F0853438F4823499F083344F
S11304B098F48134A1F40CC0823661F0833618F4C8
S11304C0813669F405C0833639F0843641F406C0B8
S11304D06BBB089568BB089565BB089562BB08951E
S11304E0843409F1853438F48234A9F08334B8F4BF
S11304F08134E1F40CC0823671F0833618F481360D
S1130500A9F405C0833659F0843681F40CC08BB34A
S113051080958BBB089588B3809588BB089585B377
S1130520809585BB089582B3809582BB08958434F9
S1130530D9F0853438F4823499F0833498F48134D2
S1130540A1F40CC0823661F0833618F4813669F464
S113055005C0833639F0843641F406C08BB3089560
S113056088B3089585B3089582B30895843409F453
S113057071C0853448F4823499F1833408F04DC055
S1130580813409F083C00FC0823651F1833620F4E0
S1130590813609F07BC007C0833609F43EC0843637
S11305A009F074C057C0413069F42BB381E090E086
S11305B0AC0102C0440F551F6A95E2F7BA01622BE1
S11305C06BBB08952BB381E090E0AC0102C0440FF3
S11305D0551F6A95E2F7BA01609562236BBB0895D3
S11305E0413069F428B381E090E0AC0102C0440FCB
S11305F0551F6A95E2F7BA01622B68BB089528B3C8
S113060081E090E0AC0102C0440F551F6A95E2F707
S1130610BA016095622368BB0895413069F425B33B
S113062081E090E0AC0102C0440F551F6A95E2F7E7
S1130630BA01622B65BB089525B381E090E0AC015B
S113064002C0440F551F6A95E2F7BA016095622310
S113065065BB0895413069F422B381E090E0AC01B8
S113066002C0440F551F6A95E2F7BA01622B62BBC0
S1130670089522B381E090E0AC0102C0440F551FFD
S11306806A95E2F7BA016095622362BB089583E636
S113069065E041E00E94EC008FE99FE00197F1F7EB
S11306A000C0000083E665E040E00E94EC0008958D
S11306B0AF92BF92CF92DF92EF92FF920F931F936C
S11306C0CF93DF93C0E0D0E013E00F2EF7E0EF2EDE
S11306D0FF24F02DCC24DD24C394A82EBB2403E0F6
S11306E0A7014C1B5D0BC601042E02C0880F991F85
S11306F00A94E2F78A219B219C0102C03695279532
S11307004A95E2F7A90183E6612F0E94EC00C33009
S113071021F0C73011F0115008C083E664E041E0D5
S11307200E94EC000E944703102F2196C830D10587
S1130730B9F68FEC97E00197F1F700C00000DF9164
S1130740CF911F910F91FF90EF90DF90CF90BF90CA
S1130750AF900895AF92BF92CF92DF92EF92FF9243
S11307600F931F93CF93DF93C0E0D0E013E00F2EDD
S1130770F7E0EF2EFF24F02DCC24DD24C394A82E23
S1130780BB2403E0A7014C1B5D0BC601042E02C071
S1130790880F991F0A94E2F78A219B219C0102C0C9
S11307A0369527954A95E2F7A90183E6612F0E94C1
S11307B0EC00C33021F0C73011F0115008C083E6BB
S11307C064E040E00E94EC000E944703102F219651
S11307D0C830D105B9F68FEC97E00197F1F700C066
S11307E00000DF91CF911F910F91FF90EF90DF9068
S11307F0CF90BF90AF90089581E00E94AA038FE14B
S11308009EE40197F1F700C000000895CF938FE7AD
S113081098E3A1E081509040A040E1F700C00000BF
S1130820C0E083E66C2F41E00E945B00CF5FC430E0
S1130830C1F783E665E041E00E945B0083E664E083
S113084041E00E945B0082E00E94AA03AFE0B7E2AD
S11308501197F1F700C0000088E20E94AA038EE01D
S11308600E94AA0381E00E94AA038FE097E2019705
S1130870F1F700C0000086E00E94AA03CF9108951A
S1130880982F9150923020F4613110F4662321F4B2
S113089080E80E94AA030895813029F4862F8158A4
S11308A00E94AA030895823021F4862F81540E9465
S11308B0AA030895CF93DF93EC018881882331F054
S11308C021960E94580389918823D9F7DF91CF910B
S11308D00895262F372F220F331FA901440F551FC8
S11308E0440F551F240F351F90E0C097820F931FAC
S11308F00895EF92FF920F931F93CF93DF937C01A0
S1130900009721F480E30E94580340C08AE0E8166F
S1130910F1042CF48E2D805D0E94580337C0C7016A
S1130920C1E0D0E0EAE0F0E0BF010E944706CB015D
S11309309E01220F331FCC0FDD1FCC0FDD1FCC0F08
S1130940DD1FC20FD31F6A30710574F7CA30D10599
S1130950ACF00AE010E0C701BE010E944706CB01DB
S1130960B8010E944706805D0E945803CE01B80179
S11309700E944706EB016A3071056CF7C7016AE013
S113098070E00E944706805D0E945803DF91CF917A
S11309901F910F91FF90EF9008950E9406040E940A
S11309A049008CE00E94AA0380E690E00E945A0469
S11309B00F2EFAE0EF2EFF24F02D08EE13E00E9434
S11309C05000BC0180E090E00E94560520E030E039
S11309D040E250E40E94BC050E942505DC01CB01E5
S11309E0EC0181E066E00E94400483E0C83ED80741
S11309F0B4F0CE01885E9340B7010E944706CB0154
S1130A000E9479048FED0E94580383E40E945803E6
S1130A1080E20E94580380E20E945803D0CF8DE206
S1130A200E945803C8018C1B9D0BB7010E94470606
S1130A30CB010E9479048FED0E94580383E40E9445
S1130A40580380E20E945803BACF04D06894B111CD
S1130A508DC0089570D088F09F5790F0B92F9927D2
S1130A60B751A0F0D1F0660F771F881F991F1AF0B5
S1130A70BA95C9F712C0B13081F077D0B1E00895CA
S1130A8074C0672F782F8827B85F39F0B93FCCF34B
S1130A90869577956795B395D9F73EF490958095AB
S1130AA0709561957F4F8F4F9F4F0895E89409C0CB
S1130AB097FB3EF490958095709561957F4F8F4F8D
S1130AC09F4F9923A9F0F92F96E9BB279395F695A3
S1130AD0879577956795B795F111F8CFFAF4BB0F21
S1130AE011F460FF1BC06F5F7F4F8F4F9F4F16C085
S1130AF0882311F096E911C0772321F09EE8872F0F
S1130B00762F05C0662371F096E8862F70E060E0CA
S1130B102AF09A95660F771F881FDAF7880F969543
S1130B20879597F9089557FD9058440F551F59F02C
S1130B305F3F71F04795880F97FB991F61F09F3FC6
S1130B4079F087950895121613061406551FF2CFEF
S1130B504695F1DF08C0161617061806991FF1CF3F
S1130B6086957105610508940895E894BB27662766
S1130B707727CB0197F908950BD078C069D028F076
S1130B806ED018F0952309F05AC05FC01124EECF3F
S1130B90CADFA0F3959FD1F3950F50E0551F629FD4
S1130BA0F001729FBB27F00DB11D639FAA27F00DC2
S1130BB0B11DAA1F649F6627B00DA11D661F829FE9
S1130BC02227B00DA11D621F739FB00DA11D621FCE
S1130BD0839FA00D611D221F749F3327A00D611DEB
S1130BE0231F849F600D211D822F762F6A2F1124CD
S1130BF09F5750408AF0E1F088234AF0EE0FFF1F20
S1130C00BB1F661F771F881F91505040A9F79E3F56
S1130C10510570F014C0AACF5F3FECF3983EDCF3AB
S1130C20869577956795B795F795E7959F5FC1F793
S1130C30FE2B880F911D9695879597F9089597F93E
S1130C409F6780E870E060E008959FEF80EC08956E
S1130C5000240A9416161706180609060895002497
S1130C600A9412161306140605060895092E039411
S1130C70000C11F4882352F0BB0F40F4BF2B11F485
S1130C8060FF04C06F5F7F4F8F4F9F4F089597FBA6
S1130C90092E07260AD077FD04D00CD006D00020F8
S1130CA01AF4709561957F4F0895F6F790958195A4
S1130CB09F4F0895AA1BBB1B51E107C0AA1FBB1F6E
S1130CC0A617B70710F0A61BB70B881F991F5A95D4
S1130CD0A9F780959095BC01CD010895F894FFCFB4
S1090CE054454D503A009A
S9030000FC
