:100000000C942A000C9447000C9447000C94470071
:100010000C9447000C9447000C9447000C94470044
:100020000C9447000C9447000C9447000C94470034
:100030000C9447000C9447000C9447000C94470024
:100040000C9447000C9447000C9447000C94470014
:100050000C94470011241FBECFE5D8E0DEBFCDBF12
:1000600010E0A0E6B0E0EAEFF9E002C005900D92E2
:10007000A036B107D9F710E0A0E6B0E001C01D92AC
:10008000A036B107E1F70E9435030C94FB040C94F1
:100090000000843409F471C0853448F4823499F145
:1000A000833408F04DC0813409F083C00FC082361C
:1000B00051F1833620F4813609F07BC007C08336C6
:1000C00009F43EC0843609F074C057C0413069F469
:1000D0002AB381E090E0AC0102C0440F551F6A953D
:1000E000E2F7BA01622B6ABB08952AB381E090E07F
:1000F000AC0102C0440F551F6A95E2F7BA01609542
:1001000062236ABB0895413069F427B381E090E02F
:10011000AC0102C0440F551F6A95E2F7BA01622B89
:1001200067BB089527B381E090E0AC0102C0440FA3
:10013000551F6A95E2F7BA016095622367BB08957F
:10014000413069F424B381E090E0AC0102C0440F77
:10015000551F6A95E2F7BA01622B64BB089524B378
:1001600081E090E0AC0102C0440F551F6A95E2F7B0
:10017000BA016095622364BB0895413069F421B3EC
:1001800081E090E0AC0102C0440F551F6A95E2F790
:10019000BA01622B61BB089521B381E090E0AC010C
:1001A00002C0440F551F6A95E2F7BA0160956223B9
:1001B00061BB0895843409F471C0853448F48234F5
:1001C00099F1833408F04DC0813409F083C00FC029
:1001D000823651F1833620F4813609F07BC007C0A6
:1001E000833609F43EC0843609F074C057C04130EC
:1001F00069F42BB381E090E0AC0102C0440F551FBD
:100200006A95E2F7BA01622B6BBB08952BB381E0CC
:1002100090E0AC0102C0440F551F6A95E2F7BA01A5
:10022000609562236BBB0895413069F428B381E087
:1002300090E0AC0102C0440F551F6A95E2F7BA0185
:10024000622B68BB089528B381E090E0AC0102C046
:10025000440F551F6A95E2F7BA016095622368BBA7
:100260000895413069F425B381E090E0AC0102C00B
:10027000440F551F6A95E2F7BA01622B65BB0895DA
:1002800025B381E090E0AC0102C0440F551F6A9590
:10029000E2F7BA016095622365BB0895413069F4C5
:1002A00022B381E090E0AC0102C0440F551F6A9573
:1002B000E2F7BA01622B62BB089522B381E090E0BD
:1002C000AC0102C0440F551F6A95E2F7BA01609570
:1002D000622362BB0895843409F43DC0853440F440
:1002E0008234F9F0833450F5813409F040C00CC0F9
:1002F0008236B9F0833618F48136C9F505C08336E5
:10030000E9F08436A1F527C02BB381E090E0AC0181
:1003100002C0440F551F6A95E2F7BA0162276BBB12
:10032000089528B381E090E0AC0102C0440F551F4E
:100330006A95E2F7BA01622768BB089525B381E0A8
:1003400090E0AC0102C0440F551F6A95E2F7BA0174
:10035000622765BB089522B381E090E0AC0102C042
:10036000440F551F6A95E2F7BA01622762BB0895F0
:10037000843409F451C0853440F4823439F1833433
:10038000C0F5813409F05AC00EC08236F9F08336C8
:1003900020F4813609F052C006C0833651F184360C
:1003A00009F04CC039C029B381E090E0062E02C0AC
:1003B000880F991F0A94E2F730E08223932302C04A
:1003C000969587956A95E2F7982F38C026B381E015
:1003D00090E0062E02C0880F991F0A94E2F730E0E1
:1003E0008223932302C0969587956A95E2F7982F0A
:1003F00025C023B381E090E0062E02C0880F991F2C
:100400000A94E2F730E08223932302C09695879501
:100410006A95E2F7982F12C020B381E090E0062E93
:1004200002C0880F991F0A94E2F730E082239323D9
:1004300002C0969587956A95E2F7982F892F0895BF
:100440008434D9F0853438F4823499F0833498F4C4
:100450008134A1F40CC0823661F0833618F4813601
:1004600069F405C0833639F0843641F406C06ABBAE
:10047000089567BB089564BB089561BB08958434F3
:10048000D9F0853438F4823499F0833498F4813487
:10049000A1F40CC0823661F0833618F4813669F419
:1004A00005C0833639F0843641F406C06BBB08952D
:1004B00068BB089565BB089562BB0895843409F153
:1004C000853438F48234A9F08334B8F48134E1F40B
:1004D0000CC0823671F0833618F48136A9F405C059
:1004E000833659F0843681F40CC08BB380958BBB76
:1004F000089588B3809588BB089585B3809585BBA2
:10050000089582B3809582BB08958434D9F08534F0
:1005100038F4823499F0833498F48134A1F40CC017
:10052000823661F0833618F4813669F405C083366B
:1005300039F0843641F406C08BB3089588B308952A
:1005400085B3089582B30895843409F471C0853465
:1005500048F4823499F1833408F04DC0813409F0B5
:1005600083C00FC0823651F1833620F4813609F002
:100570007BC007C0833609F43EC0843609F074C0DE
:1005800057C0413069F42BB381E090E0AC0102C068
:10059000440F551F6A95E2F7BA01622B6BBB0895B1
:1005A0002BB381E090E0AC0102C0440F551F6A9567
:1005B000E2F7BA01609562236BBB0895413069F49C
:1005C00028B381E090E0AC0102C0440F551F6A954A
:1005D000E2F7BA01622B68BB089528B381E090E08E
:1005E000AC0102C0440F551F6A95E2F7BA0160954D
:1005F000622368BB0895413069F425B381E090E03F
:10060000AC0102C0440F551F6A95E2F7BA01622B94
:1006100065BB089525B381E090E0AC0102C0440FB2
:10062000551F6A95E2F7BA016095622365BB08958C
:10063000413069F422B381E090E0AC0102C0440F84
:10064000551F6A95E2F7BA01622B62BB089522B387
:1006500081E090E0AC0102C0440F551F6A95E2F7BB
:10066000BA016095622362BB089560E070E080E7A4
:1006700091E40E9480038FEF99E6A8E181509040B9
:10068000A040E1F700C0000060E070E080E491EC81
:100690000E9480038FEF99E6A8E181509040A0402E
:1006A000E1F700C0000060E070E080EA92E40E94A0
:1006B00080038FEF99E6A8E181509040A040E1F7D8
:1006C00000C0000060E070E08CE892EC0E948003C3
:1006D0008FEF99E6A8E181509040A040E1F700C07B
:1006E0000000C3CF82B5886082BD85B5816085BDBD
:1006F00085B5846085BD789489B7806489BF089585
:1007000021E63BE046EB5BE30E9498048D9A2FB50F
:100710002E7F2FBD2FB522602FBD2EB528602EBD98
:100720002EB520612EBD462F572F682F792FCB0174
:10073000BA0120E030E040EC5FE30E94B70320E024
:1007400030E04AE754E40E9498040E941B04DC0154
:10075000CB019BBD8ABD8FE19EE497BD86BD8EB562
:1007600082608EBD8FB580688FBD08955058BB27BD
:10077000AA270ED0A3C094D030F099D020F031F445
:100780009F3F11F41EF489C00EF4E095E7FB7FC093
:10079000E92FA5D080F3BA1762077307840795077E
:1007A00018F071F49EF5BDC00EF4E0950B2EBA2F33
:1007B000A02D0B01B90190010C01CA01A001112467
:1007C000FF27591B99F0593F50F4503E68F11A1613
:1007D000F040A22F232F342F4427585FF3CF4695A4
:1007E00037952795A795F0405395C9F77EF41F16C6
:1007F000BA0B620B730B840BBAF09150A1F0FF0F90
:10080000BB1F661F771F881FC2F70EC0BA0F621F7B
:10081000731F841F48F4879577956795B795F7956B
:100820009E3F08F0B3CF9395880F08F09927EE0FFD
:100830009795879508955BD088F09F5790F0B92FD2
:100840009927B751A0F0D1F0660F771F881F991F25
:100850001AF0BA95C9F712C0B13081F062D0B1E098
:1008600008955FC0672F782F8827B85F39F0B93FA8
:10087000CCF3869577956795B395D9F73EF4909527
:100880008095709561957F4F8F4F9F4F089597F991
:100890009F6780E870E060E008959FEF80EC089526
:1008A00000240A941616170618060906089500244F
:1008B0000A9412161306140605060895092E0394C9
:1008C000000C11F4882352F0BB0F40F4BF2B11F43D
:1008D00060FF04C06F5F7F4F8F4F9F4F089557FD9C
:1008E0009058440F551F59F05F3F71F04795880F9E
:1008F00097FB991F61F09F3F79F087950895121635
:1009000013061406551FF2CF4695F1DF08C01616E0
:1009100017061806991FF1CF869571056105089491
:100920000895E894BB2766277727CB0197F90895A8
:100930000BD0C4CFB5DF28F0BADF18F0952309F04B
:10094000A6CFABCF1124EECFCADFA0F3959FD1F392
:10095000950F50E0551F629FF001729FBB27F00D6D
:10096000B11D639FAA27F00DB11DAA1F649F6627C2
:10097000B00DA11D661F829F2227B00DA11D621F11
:10098000739FB00DA11D621F839FA00D611D221FCB
:10099000749F3327A00D611D231F849F600D211DAF
:1009A000822F762F6A2F11249F5750408AF0E1F052
:1009B00088234AF0EE0FFF1FBB1F661F771F881F9B
:1009C00091505040A9F79E3F510570F060CFAACFDB
:1009D0005F3FECF3983EDCF3869577956795B79586
:1009E000F795E7959F5FC1F7FE2B880F911D9695B0
:0A09F000879597F90895F894FFCF5A
:00000001FF
