S01700005245414C5F54494D455F434C4F434B2E7372656390
S11300000C942A000C9447000C9447000C9447006D
S11300100C9447000C94E9060C9447000C94470098
S11300200C9447000C9447000C9447000C94470030
S11300300C9447000C9447000C9447000C94470020
S11300400C9447000C9447000C9447000C94470010
S11300500C94470011241FBECFE5D8E0DEBFCDBF0E
S113006010E0A0E6B0E0E6E3FFE002C005900D92E8
S1130070AA37B107D9F710E0AAE7B0E001C01D9292
S1130080AB37B107E1F70E94BA050C9499070C94B9
S11300900000843409F471C0853448F4823499F141
S11300A0833408F04DC0813409F083C00FC0823618
S11300B051F1833620F4813609F07BC007C08336C2
S11300C009F43EC0843609F074C057C0413069F465
S11300D02AB381E090E0AC0102C0440F551F6A9539
S11300E0E2F7BA01622B6ABB08952AB381E090E07B
S11300F0AC0102C0440F551F6A95E2F7BA0160953E
S113010062236ABB0895413069F427B381E090E02B
S1130110AC0102C0440F551F6A95E2F7BA01622B85
S113012067BB089527B381E090E0AC0102C0440F9F
S1130130551F6A95E2F7BA016095622367BB08957B
S1130140413069F424B381E090E0AC0102C0440F73
S1130150551F6A95E2F7BA01622B64BB089524B374
S113016081E090E0AC0102C0440F551F6A95E2F7AC
S1130170BA016095622364BB0895413069F421B3E8
S113018081E090E0AC0102C0440F551F6A95E2F78C
S1130190BA01622B61BB089521B381E090E0AC0108
S11301A002C0440F551F6A95E2F7BA0160956223B5
S11301B061BB0895843409F471C0853448F48234F1
S11301C099F1833408F04DC0813409F083C00FC025
S11301D0823651F1833620F4813609F07BC007C0A2
S11301E0833609F43EC0843609F074C057C04130E8
S11301F069F42BB381E090E0AC0102C0440F551FB9
S11302006A95E2F7BA01622B6BBB08952BB381E0C8
S113021090E0AC0102C0440F551F6A95E2F7BA01A1
S1130220609562236BBB0895413069F428B381E083
S113023090E0AC0102C0440F551F6A95E2F7BA0181
S1130240622B68BB089528B381E090E0AC0102C042
S1130250440F551F6A95E2F7BA016095622368BBA3
S11302600895413069F425B381E090E0AC0102C007
S1130270440F551F6A95E2F7BA01622B65BB0895D6
S113028025B381E090E0AC0102C0440F551F6A958C
S1130290E2F7BA016095622365BB0895413069F4C1
S11302A022B381E090E0AC0102C0440F551F6A956F
S11302B0E2F7BA01622B62BB089522B381E090E0B9
S11302C0AC0102C0440F551F6A95E2F7BA0160956C
S11302D0622362BB0895843409F43DC0853440F43C
S11302E08234F9F0833450F5813409F040C00CC0F5
S11302F08236B9F0833618F48136C9F505C08336E1
S1130300E9F08436A1F527C02BB381E090E0AC017D
S113031002C0440F551F6A95E2F7BA0162276BBB0E
S1130320089528B381E090E0AC0102C0440F551F4A
S11303306A95E2F7BA01622768BB089525B381E0A4
S113034090E0AC0102C0440F551F6A95E2F7BA0170
S1130350622765BB089522B381E090E0AC0102C03E
S1130360440F551F6A95E2F7BA01622762BB0895EC
S1130370843409F451C0853440F4823439F183342F
S1130380C0F5813409F05AC00EC08236F9F08336C4
S113039020F4813609F052C006C0833651F1843608
S11303A009F04CC039C029B381E090E0062E02C0A8
S11303B0880F991F0A94E2F730E08223932302C046
S11303C0969587956A95E2F7982F38C026B381E011
S11303D090E0062E02C0880F991F0A94E2F730E0DD
S11303E08223932302C0969587956A95E2F7982F06
S11303F025C023B381E090E0062E02C0880F991F28
S11304000A94E2F730E08223932302C096958795FD
S11304106A95E2F7982F12C020B381E090E0062E8F
S113042002C0880F991F0A94E2F730E082239323D5
S113043002C0969587956A95E2F7982F892F0895BB
S11304408434D9F0853438F4823499F0833498F4C0
S11304508134A1F40CC0823661F0833618F48136FD
S113046069F405C0833639F0843641F406C06ABBAA
S1130470089567BB089564BB089561BB08958434EF
S1130480D9F0853438F4823499F0833498F4813483
S1130490A1F40CC0823661F0833618F4813669F415
S11304A005C0833639F0843641F406C06BBB089529
S11304B068BB089565BB089562BB0895843409F14F
S11304C0853438F48234A9F08334B8F48134E1F407
S11304D00CC0823671F0833618F48136A9F405C055
S11304E0833659F0843681F40CC08BB380958BBB72
S11304F0089588B3809588BB089585B3809585BB9E
S1130500089582B3809582BB08958434D9F08534EC
S113051038F4823499F0833498F48134A1F40CC013
S1130520823661F0833618F4813669F405C0833667
S113053039F0843641F406C08BB3089588B3089526
S113054085B3089582B30895843409F471C0853461
S113055048F4823499F1833408F04DC0813409F0B1
S113056083C00FC0823651F1833620F4813609F0FE
S11305707BC007C0833609F43EC0843609F074C0DA
S113058057C0413069F42BB381E090E0AC0102C064
S1130590440F551F6A95E2F7BA01622B6BBB0895AD
S11305A02BB381E090E0AC0102C0440F551F6A9563
S11305B0E2F7BA01609562236BBB0895413069F498
S11305C028B381E090E0AC0102C0440F551F6A9546
S11305D0E2F7BA01622B68BB089528B381E090E08A
S11305E0AC0102C0440F551F6A95E2F7BA01609549
S11305F0622368BB0895413069F425B381E090E03B
S1130600AC0102C0440F551F6A95E2F7BA01622B90
S113061065BB089525B381E090E0AC0102C0440FAE
S1130620551F6A95E2F7BA016095622365BB089588
S1130630413069F422B381E090E0AC0102C0440F80
S1130640551F6A95E2F7BA01622B62BB089522B383
S113065081E090E0AC0102C0440F551F6A95E2F7B7
S1130660BA016095622362BB08954F925F926F92C4
S11306707F928F929F92AF92BF92CF92DF92EF922E
S1130680FF920F931F93CF93DF93F82EE42E00E095
S113069010E0C62EDD24822E992456010894A11C54
S11306A0B11C66247724689461F86C0C7D1C0F2EB1
S11306B0F3E04F2E5524F02D4C0C5D1CB8016C0D4D
S11306C07D1D8F2D90E041E050E00E944900E8013B
S11306D0C80DD91D8E2D90E0BE0140E050E00E946F
S11306E049008E2D90E0BE0141E050E00E94A4023A
S11306F08F2D90E0B60141E050E00E94DA008F2D8A
S113070090E0B50141E050E00E94DA008F2D90E0C6
S1130710B30141E050E00E94DA008F2D90E0B20175
S113072041E050E00E94DA000F5F1F4F04301105D2
S113073029F6DF91CF911F910F91FF90EF90DF90F9
S1130740CF90BF90AF909F908F907F906F905F906D
S11307504F9008952F923F924F925F926F927F92A3
S11307608F929F92AF92BF92CF92DF92EF92FF92BD
S11307700F931F93CF93DF9300D000D0CDB7DEB794
S1130780682ECC24DD24862F90E09A8389837724F5
S1130790822E9924F42EE72C160149805A804C0CA1
S11307A05D1C862D972DB20140E050E00E94DA00D6
S11307B01C821B82AB80BC808501080D191D8F2D06
S11307C09E2DB8010E94B8010097E1F48F2D9E2D53
S11307D0B8010E94B8010097C9F3C101880F991F9D
S11307E0880F991F8A0D9B1D805A9F4FFC01008121
S11307F0862D972DB20141E050E00E94DA000F3FB0
S113080051F012C08B819C8101969C838B83843030
S1130810910581F621C00894C11CD11C94E0C9162D
S1130820D10409F0B9CF0FEF802F0F900F900F90E4
S11308300F90DF91CF911F910F91FF90EF90DF9078
S1130840CF90BF90AF909F908F907F906F905F906C
S11308504F903F902F900895862D972DB20141E03F
S113086050E00E94DA00D7CF83E665E041E00E94C1
S1130870DA008FE99FE00197F1F700C0000083E6FA
S113088065E040E00E94DA000895AF92BF92CF92F3
S1130890DF92EF92FF920F931F93CF93DF93C0E009
S11308A0D0E013E00F2EF7E0EF2EFF24F02DCC2440
S11308B0DD24C394A82EBB2403E0A7014C1B5D0BCD
S11308C0C601042E02C0880F991F0A94E2F78A21F8
S11308D09B219C0102C0369527954A95E2F7A90110
S11308E083E6612F0E94DA00C33021F0C73011F093
S11308F0115008C083E664E041E00E94DA000E94DF
S11309003404102F2196C830D105B9F68FEC97E046
S11309100197F1F700C00000DF91CF911F910F9173
S1130920FF90EF90DF90CF90BF90AF900895AF927B
S1130930BF92CF92DF92EF92FF920F931F93CF93C8
S1130940DF93C0E0D0E013E00F2EF7E0EF2EFF249A
S1130950F02DCC24DD24C394A82EBB2403E0A701EE
S11309604C1B5D0BC601042E02C0880F991F0A940C
S1130970E2F78A219B219C0102C0369527954A956E
S1130980E2F7A90183E6612F0E94DA00C33021F067
S1130990C73011F0115008C083E664E040E00E94C3
S11309A0DA000E943404102F2196C830D105B9F61C
S11309B08FEC97E00197F1F700C00000DF91CF9131
S11309C01F910F91FF90EF90DF90CF90BF90AF9069
S11309D0089581E00E9497048FE19EE40197F1F766
S11309E000C000000895CF938FE798E3A1E0815001
S11309F09040A040E1F700C00000C0E083E66C2F07
S1130A0041E00E944900CF5FC430C1F783E665E04E
S1130A1041E00E94490083E664E041E00E9449000D
S1130A2082E00E949704AFE0B7E21197F1F700C0AB
S1130A30000088E20E9497048EE00E94970481E0FF
S1130A400E9497048FE097E20197F1F700C000003D
S1130A5086E00E949704CF910895982F9150923088
S1130A6020F4613110F4662321F480E80E94970495
S1130A700895813029F4862F81580E94970408959F
S1130A80823021F4862F81540E9497040895CF93D5
S1130A90DF93EC018881882331F021960E9445047C
S1130AA089918823D9F7DF91CF910895262F372F85
S1130AB0220F331FA901440F551F440F551F240F44
S1130AC0351F90E0C097820F931F0895EF92FF9215
S1130AD00F931F93CF93DF937C01009721F480E35E
S1130AE00E94450440C08AE0E816F1042CF48E2DDF
S1130AF0805D0E94450437C0C701C1E0D0E0EAE050
S1130B00F0E0BF010E947207CB019E01220F331F48
S1130B10CC0FDD1FCC0FDD1FCC0FDD1FC20FD31F89
S1130B206A30710574F7CA30D105ACF00AE010E000
S1130B30C701BE010E947207CB01B8010E9472076F
S1130B40805D0E944504CE01B8010E947207EB014A
S1130B506A3071056CF7C7016AE070E00E947207A1
S1130B60805D0E944504DF91CF911F910F91FF900A
S1130B70EF900895CF93DF930F92CDB7DEB70E9425
S1130B80580784E660E044E624E00E94350381E6E9
S1130B900E94FA0683E660E041E00E94490083E691
S1130BA061E041E00E94490083E662E041E00E9486
S1130BB0490083E663E041E00E94490083E664E083
S1130BC041E00E94490083E665E041E00E9449005B
S1130BD0198210E0FF24DD240F2EFAE0EF2EF02D11
S1130BE00AC0D82E82E0898306C0F82E92E0998349
S1130BF010E001C010E080917A006E2D0E9466071B
S1130C0081E6692F41E00E94FE0683E665E040E04C
S1130C100E94DA00EFECF7E03197F1F700C0000032
S1130C2083E665E041E00E94DA0080917A006E2D4F
S1130C300E946607682F81E641E00E94FE0683E673
S1130C4064E040E00E94DA008FEC97E00197F1F74E
S1130C5000C0000083E664E041E00E94DA008D2DCC
S1130C606E2D0E946607082F81E6692F41E00E94DD
S1130C70FE0683E663E040E00E94DA00EFECF7E072
S1130C803197F1F700C0000083E663E041E00E9481
S1130C90DA0081E6602F41E00E94FE0683E662E00E
S1130CA040E00E94DA008FEC97E00197F1F700C072
S1130CB0000083E662E041E00E94DA008F2D6E2D91
S1130CC00E946607082F81E6692F41E00E94FE0614
S1130CD083E661E040E00E94DA00EFECF7E0319750
S1130CE0F1F700C0000083E661E041E00E94DA0011
S1130CF081E6602F41E00E94FE0683E660E040E06A
S1130D000E94DA008FEC97E00197F1F700C0000031
S1130D1083E660E041E00E94DA0080917A008C333F
S1130D2020F010927A00D3940AC09BE39D1518F426
S1130D30F394DD2404C0E7E1EF1508F4FF2484E60E
S1130D4060E044E624E00E94AA03833419F41F5FA0
S1130D50F1E0F9831130D9F49981913041F4109282
S1130D607A00805380937A00E2E0E98344CFF981EA
S1130D70F23009F040CF90917A00990F292F220F79
S1130D80220F920F9053890F80937A0034CF123040
S1130D9071F49981913009F424CF923009F02BCF6A
S1130DA0DD0C9D2D990F990FD90ED80E24CF133039
S1130DB009F021CFE981E13009F417CFE23009F0DD
S1130DC019CFFF0C9F2D990F990FF90EF80E10E013
S1130DD012CF1F920F920FB60F9211248F9380910E
S1130DE07A008F5F80937A008F910F900FBE0F90DF
S1130DF01F9018956FEF0E9420020895413041F42E
S1130E00E0E7F0E0E60FF11D60810E943F020895E3
S1130E10E0E7F0E0E60FF11D608160950E943F027B
S1130E2008951F93CF93DF93182FC62FD62FDC5F1F
S1130E30812F6C2F41E00E944900CF5FCD17C1F78D
S1130E40DF91CF911F910895CF92DF92EF92FF929D
S1130E500F931F93CF93DF93082F162FC0E0D0E09A
S1130E60EE24FF24E394C42EDD246C2F610FC7010C
S1130E700C2E02C0880F991F0A94E2F78C219D2141
S1130E809C010C2E02C0369527950A94E2F7A9011D
S1130E90802F0E94DA002196C430D10531F7DF910A
S1130EA0CF911F910F91FF90EF90DF90CF90089515
S1130EB082B5886082BD85B5816085BD85B5846055
S1130EC085BD789489B7806489BF0895991B79E0BA
S1130ED004C0991F961708F0961B881F7A95C9F7C6
S1130EE08095089597FB092E07260AD077FD04D034
S1130EF00CD006D000201AF4709561957F4F0895A8
S1130F00F6F7909581959F4F0895AA1BBB1B51E15D
S1130F1007C0AA1FBB1FA617B70710F0A61BB70B65
S1130F20881F991F5A95A9F780959095BC01CD010A
S1090F300895F894FFCFC0
S1130F363738392F3435362A3132332D43303D2B69
S10D0F463F065B4F666D7D077F6F69
S9030000FC
