:100000000C942A000C94A90A0C9447000C94470005
:100010000C9447000C9447000C9447000C94470044
:100020000C9447000C9447000C9447000C94470034
:100030000C9447000C9447000C9447000C94470024
:100040000C9447000C9447000C9447000C94470014
:100050000C94470011241FBECFE5D8E0DEBFCDBF12
:1000600011E0A0E6B0E0E2E5F9E102C005900D92F2
:10007000AC3BB107D9F711E0ACEBB1E001C01D9288
:10008000AC3BB107E1F70E94A3060C94A70C0C94BB
:100090000000DC01CB01880F991FAA1FBB1F880F2E
:1000A000991FAA1FBB1F9C01AD01220F331F441FC4
:1000B000551F220F331F441F551F60E072E18AE76E
:1000C00090E00E94710C2150304030BD29B98AB1B6
:1000D00088618AB980B5866880BD08955D9BFECF32
:1000E0008CB908955F9BFECF8CB10895CF93DF93B9
:1000F000EC018881882379F021960E946E008FE7B9
:1001000098E3A1E081509040A040E1F700C00000DA
:100110008991882391F7DF91CF91089582E663E07A
:1001200041E00E94E80082E664E041E00E94E800CD
:1001300082E665E041E00E94E80082E666E040E099
:100140000E94E80082E667E041E00E94E8006C9AC5
:100150006E9A82E664E041E00E94790182E663E003
:1001600041E00E94790108956E9A82E666E041E0DE
:100170000E94E8000895CF93C82F82E640E00E94D5
:100180007901CFB9779BFECF8FB1CF9108958FB909
:10019000779BFECF8FB108951F93CF93DF93EC0130
:1001A000162F8881882381F02196612F0E94BB0041
:1001B0008FEF92E5A7E081509040A040E1F700C0AA
:1001C00000008991882389F7DF91CF911F910895CD
:1001D000843409F471C0853448F4823499F183344D
:1001E00008F04DC0813409F083C00FC0823651F150
:1001F000833620F4813609F07BC007C0833609F4CA
:100200003EC0843609F074C057C0413069F42AB347
:1002100081E090E0AC0102C0440F551F6A95E2F7FF
:10022000BA01622B6ABB08952AB381E090E0AC0169
:1002300002C0440F551F6A95E2F7BA016095622328
:100240006ABB0895413069F427B381E090E0AC01C6
:1002500002C0440F551F6A95E2F7BA01622B67BBD3
:10026000089527B381E090E0AC0102C0440F551F10
:100270006A95E2F7BA016095622367BB0895413041
:1002800069F424B381E090E0AC0102C0440F551F33
:100290006A95E2F7BA01622B64BB089524B381E04A
:1002A00090E0AC0102C0440F551F6A95E2F7BA0115
:1002B0006095622364BB0895413069F421B381E005
:1002C00090E0AC0102C0440F551F6A95E2F7BA01F5
:1002D000622B61BB089521B381E090E0AC0102C0C4
:1002E000440F551F6A95E2F7BA016095622361BB1E
:1002F0000895843409F471C0853448F4823499F146
:10030000833408F04DC0813409F083C00FC08236B9
:1003100051F1833620F4813609F07BC007C0833663
:1003200009F43EC0843609F074C057C0413069F406
:100330002BB381E090E0AC0102C0440F551F6A95D9
:10034000E2F7BA01622B6BBB08952BB381E090E01A
:10035000AC0102C0440F551F6A95E2F7BA016095DF
:1003600062236BBB0895413069F428B381E090E0CB
:10037000AC0102C0440F551F6A95E2F7BA01622B27
:1003800068BB089528B381E090E0AC0102C0440F3F
:10039000551F6A95E2F7BA016095622368BB08951C
:1003A000413069F425B381E090E0AC0102C0440F14
:1003B000551F6A95E2F7BA01622B65BB089525B314
:1003C00081E090E0AC0102C0440F551F6A95E2F74E
:1003D000BA016095622365BB0895413069F422B388
:1003E00081E090E0AC0102C0440F551F6A95E2F72E
:1003F000BA01622B62BB089522B381E090E0AC01A8
:1004000002C0440F551F6A95E2F7BA016095622356
:1004100062BB0895843409F43DC0853440F48234CD
:10042000F9F0833450F5813409F040C00CC08236B5
:10043000B9F0833618F48136C9F505C08336E9F082
:100440008436A1F527C02BB381E090E0AC0102C057
:10045000440F551F6A95E2F7BA0162276BBB0895F6
:1004600028B381E090E0AC0102C0440F551F6A95AB
:10047000E2F7BA01622768BB089525B381E090E0F6
:10048000AC0102C0440F551F6A95E2F7BA0162271A
:1004900065BB089522B381E090E0AC0102C0440F37
:1004A000551F6A95E2F7BA01622762BB089584344A
:1004B00009F451C0853440F4823439F18334C0F5F5
:1004C000813409F05AC00EC08236F9F0833620F428
:1004D000813609F052C006C0833651F1843609F0E6
:1004E0004CC039C029B381E090E0062E02C0880FCD
:1004F000991F0A94E2F730E08223932302C0969575
:1005000087956A95E2F7982F38C026B381E090E08E
:10051000062E02C0880F991F0A94E2F730E082236A
:10052000932302C0969587956A95E2F7982F25C088
:1005300023B381E090E0062E02C0880F991F0A9431
:10054000E2F730E08223932302C0969587956A955F
:10055000E2F7982F12C020B381E090E0062E02C08F
:10056000880F991F0A94E2F730E08223932302C098
:10057000969587956A95E2F7982F892F0895843488
:10058000D9F0853438F4823499F0833498F4813486
:10059000A1F40CC0823661F0833618F4813669F418
:1005A00005C0833639F0843641F406C06ABB08952D
:1005B00067BB089564BB089561BB08958434D9F086
:1005C000853438F4823499F0833498F48134A1F47A
:1005D0000CC0823661F0833618F4813669F405C0A8
:1005E000833639F0843641F406C06BBB089568BB8E
:1005F000089565BB089562BB0895843409F185347C
:1006000038F48234A9F08334B8F48134E1F40CC0B6
:10061000823671F0833618F48136A9F405C083362A
:1006200059F0843681F40CC08BB380958BBB089550
:1006300088B3809588BB089585B3809585BB089560
:1006400082B3809582BB08958434D9F0853438F420
:10065000823499F0833498F48134A1F40CC082364A
:1006600061F0833618F4813669F405C0833639F0B9
:10067000843641F406C08BB3089588B3089585B3DA
:10068000089582B30895843409F471C0853448F420
:10069000823499F1833408F04DC0813409F083C06D
:1006A0000FC0823651F1833620F4813609F07BC0C9
:1006B00007C0833609F43EC0843609F074C057C0C1
:1006C000413069F42BB381E090E0AC0102C0440FEB
:1006D000551F6A95E2F7BA01622B6BBB08952BB3E5
:1006E00081E090E0AC0102C0440F551F6A95E2F72B
:1006F000BA01609562236BBB0895413069F428B359
:1007000081E090E0AC0102C0440F551F6A95E2F70A
:10071000BA01622B68BB089528B381E090E0AC0178
:1007200002C0440F551F6A95E2F7BA016095622333
:1007300068BB0895413069F425B381E090E0AC01D5
:1007400002C0440F551F6A95E2F7BA01622B65BBE0
:10075000089525B381E090E0AC0102C0440F551F1D
:100760006A95E2F7BA016095622365BB089541304E
:1007700069F422B381E090E0AC0102C0440F551F40
:100780006A95E2F7BA01622B62BB089522B381E059
:1007900090E0AC0102C0440F551F6A95E2F7BA0120
:1007A0006095622362BB08954F925F926F927F9231
:1007B0008F929F92AF92BF92CF92DF92EF92FF9271
:1007C0000F931F93CF93DF93F82EE42E00E010E0F9
:1007D000C62EDD24822E992456010894A11CB11C3A
:1007E00066247724689461F86C0C7D1C0F2EF3E06E
:1007F0004F2E5524F02D4C0C5D1CB8016C0D7D1D49
:100800008F2D90E041E050E00E94E800E801C80D23
:10081000D91D8E2D90E0BE0140E050E00E94E8001E
:100820008E2D90E0BE0141E050E00E9443038F2DE9
:1008300090E0B60141E050E00E9479018F2D90E0F8
:10084000B50141E050E00E9479018F2D90E0B301A5
:1008500041E050E00E9479018F2D90E0B20141E02B
:1008600050E00E9479010F5F1F4F0430110529F6F7
:10087000DF91CF911F910F91FF90EF90DF90CF907C
:10088000BF90AF909F908F907F906F905F904F90B0
:1008900008952F923F924F925F926F927F928F9224
:1008A0009F92AF92BF92CF92DF92EF92FF920F93FF
:1008B0001F93CF93DF9300D000D0CDB7DEB7682E63
:1008C000CC24DD24862F90E09A8389837724822E9E
:1008D0009924F42EE72C160149805A804C0C5D1C9B
:1008E000862D972DB20140E050E00E9479011C82D4
:1008F0001B82AB80BC808501080D191D8F2D9E2D9C
:10090000B8010E9457020097E1F48F2D9E2DB80187
:100910000E9457020097C9F3C101880F991F880FE1
:10092000991F8A0D9B1D805A9F4FFC010081862DC7
:10093000972DB20141E050E00E9479010F3F51F044
:1009400012C08B819C8101969C838B83843091059E
:1009500081F621C00894C11CD11C94E0C916D104B1
:1009600009F0B9CF0FEF802F0F900F900F900F90DD
:10097000DF91CF911F910F91FF90EF90DF90CF907B
:10098000BF90AF909F908F907F906F905F904F90AF
:100990003F902F900895862D972DB20141E050E0B1
:1009A0000E947901D7CF81E666E041E00E9479019B
:1009B0008FE99FE00197F1F700C0000081E666E053
:1009C00040E00E9479010895AF92BF92CF92DF92EA
:1009D000EF92FF920F931F93CF93DF93C0E0D0E08D
:1009E00013E00F2EF7E0EF2EFF24F02DCC24DD24B2
:1009F000C394A82EBB2403E0A7014C1B5D0B612F01
:100A00006E5FC601042E02C0880F991F0A94E2F798
:100A10008A219B219C0102C0369527954A95E2F7D1
:100A2000A90181E60E947901C33021F0C73011F09D
:100A3000115008C081E667E041E00E9479010E9400
:100A4000D304102F2196C830D105B1F68FEC97E072
:100A50000197F1F700C00000DF91CF911F910F9136
:100A6000FF90EF90DF90CF90BF90AF900895AF923E
:100A7000BF92CF92DF92EF92FF920F931F93CF938B
:100A8000DF93C0E0D0E013E00F2EF7E0EF2EFF245D
:100A9000F02DCC24DD24C394A82EBB2403E0A701B1
:100AA0004C1B5D0B612F6E5FC601042E02C0880FC8
:100AB000991F0A94E2F78A219B219C0102C0369576
:100AC00027954A95E2F7A90181E60E947901C33092
:100AD00021F0C73011F0115008C081E667E040E016
:100AE0000E9479010E94D304102F2196C830D105AD
:100AF000B1F68FEC97E00197F1F700C00000DF91AD
:100B0000CF911F910F91FF90EF90DF90CF90BF900A
:100B1000AF90089581E00E9437058FE19EE4019730
:100B2000F1F700C000000895CF938FE798E3A1E0AC
:100B300081509040A040E1F700C00000C2E081E693
:100B40006C2F41E00E94E800CF5FC630C1F781E61C
:100B500066E041E00E94E80081E667E041E00E9433
:100B6000E80082E00E943705AFE0B7E21197F1F7A5
:100B700000C0000088E20E9437058EE00E94370521
:100B800081E00E9437058FE097E20197F1F700C0FE
:100B9000000086E00E943705CF910895982F91506C
:100BA000923020F4613110F4662321F480E80E9431
:100BB00037050895813029F4862F81580E94370522
:100BC0000895823021F4862F81540E9437050895BC
:100BD000CF93DF93EC018881882331F021960E9426
:100BE000E40489918823D9F7DF91CF910895262FC6
:100BF000372F220F331FA901440F551F440F551FD4
:100C0000240F351F90E0C097820F931F0895EF9235
:100C1000FF920F931F93CF93DF937C01009721F4F2
:100C200080E30E94E40440C08AE0E816F1042CF45A
:100C30008E2D805D0E94E40437C0C701C1E0D0E082
:100C4000EAE0F0E0BF010E945E0CCB019E01220FA2
:100C5000331FCC0FDD1FCC0FDD1FCC0FDD1FC20FEC
:100C6000D31F6A30710574F7CA30D105ACF00AE0C1
:100C700010E0C701BE010E945E0CCB01B8010E94CA
:100C80005E0C805D0E94E404CE01B8010E945E0CFF
:100C9000EB016A3071056CF7C7016AE070E00E94F1
:100CA0005E0C805D0E94E404DF91CF911F910F9153
:100CB000FF90EF90089541E00E94E800089540E021
:100CC0000E94E8000895CF93DF93D82FC62F40E00D
:100CD0000E94E8008D2F6C2F41E00E944303DF91BA
:100CE000CF910895CF93DF93D82FC62F40E00E9475
:100CF000E8008D2F6C2F40E00E944303DF91CF91DD
:100D0000089541E00E947901089540E00E94790130
:100D100008950E940A0208950E9457020895EFEC78
:100D2000F7E03197F1F700C0000064E00E94BB00DB
:100D30000895EFECF7E03197F1F700C0000063E0B1
:100D40000E94BB000895CF93DF93CDB7DEB76097C5
:100D50000FB6F894DEBF0FBECDBF81E660E041E084
:100D60000E94E80082E660E041E00E94E80081E63F
:100D700060E040E00E94790182E660E040E00E948D
:100D8000790184E667E00E945B06789485B781600C
:100D900085BF85B7826085BF8BB780648BBF84E6D3
:100DA00062E040E00E94E8000E948E008FEF94E332
:100DB000ACE081509040A040E1F700C000000E94EC
:100DC000940583E660E043E624E00E94D4031982A0
:100DD0001A821B821C821D821E82FE01379686E0CB
:100DE000DF011D928A95E9F78CE00E94370580E7C4
:100DF00090E00E94E8058FEF99E6A8E181509040CD
:100E0000A040E1F700C000000E948A057724662414
:100E10005524442488241D86188A1F861E86AA24E9
:100E2000EE2401E00F2EFFEC2F2EF0E03F2EF02DF0
:100E300003C08824AA2401E081E00E948F060130CB
:100E400009F051C10E948A058CE790E00E94E805F4
:100E50008FEF99E6A8E181509040A040E1F700C0F3
:100E600000000E948A058DE890E00E94E80582E07B
:100E700061E00E94CE0588E990E00E94E80583E6E3
:100E800060E043E624E00E9449048F3FC1F3182F3D
:100E90000E94E4040E948A05113309F044C083EAE9
:100EA00090E00E94E8058FEF99E6A8E1815090401C
:100EB000A040E1F700C000000E948A058FEA90E0A0
:100EC0000E94E80582E061E00E94CE058FEB90E091
:100ED0000E94E80583E660E043E624E00E944904BE
:100EE0008F3FC1F3813309F4D9C0823309F4DFC0E5
:100EF000833309F4E5C0843309F4EBC00E948A050A
:100F0000C1010E94E8058FEF93EDA0E3815090406E
:100F1000A040E1F700C000001D86188A1F861E86CB
:100F2000AA24EE24DEC0123309F0A7C00E948A056D
:100F30008BED90E00E94E80582E061E00E94CE0522
:100F400086EE90E00E94E80583E660E043E624E058
:100F50000E9449048F3FC1F3182F0E948A05113364
:100F600091F483EF90E00E94E8058FEF99E6A8E105
:100F700081509040A040E1F700C000008824839495
:100F8000AA24A394AEC0123309F066C080E091E0B9
:100F90000E94E8058FEF99E6A8E181509040A040BB
:100FA000E1F700C0000081E061E00E94CE0510E1A1
:100FB0008FEF0E94E4041150D9F782E061E00E94B3
:100FC000CE0510E18FEF0E94E4041150D9F78AEAB0
:100FD0000E948F068FE798E3A1E081509040A040E7
:100FE000E1F700C000008AEA0E9499068FE798E3C3
:100FF000A1E081509040A040E1F700C000008AEAE3
:101000000E94990619E0AFE3BCE91197F1F700C01F
:10101000000080E00E9499061150A9F780EF0E941D
:10102000990684E667E00E9481068FEF93E2A4EFC1
:1010300081509040A040E1F700C0000084E667E0E6
:101040000E9485060E948A0588241D86188A1F86AC
:101050001E86AA24A39445C00E948A05C1010E944D
:10106000E8058FEF93EDA0E381509040A040E1F7B9
:1010700000C000008824AA2434C00E948A05C1014F
:101080000E94E8058FEF93EDA0E381509040A040CF
:10109000E1F700C00000AA24EE2423C01D86188AB0
:1010A0001F8691E09E87EE24E39400E01AC01D861F
:1010B000188AA1E0AF871E86EE24E39400E011C0F9
:1010C0001D86B1E0B88B1F861E86EE24E39400E0F7
:1010D00008C0E1E0ED87188A1F861E86EE24E3949F
:1010E00000E00E948A05F1E0EF1609F0B4C18D8599
:1010F000813039F40E948A0581E191E00E94E8057F
:101100004AC08EE00E94370580E291E00E94E80527
:101110007E010894E11CF11CCC24DD246894C2F803
:10112000CC0EDD1E83E660E043E624E00E94490425
:10113000182F8F3FB9F30E94E4041053D7011D9379
:101140007D01AC15BD0571F782E061E00E94CE051E
:1011500089E291E00E94E805EE24FF246894E2F819
:10116000EC0EFD1E0F2EF7E0CF2EDD24F02DCC0E61
:10117000DD1E83E660E043E624E00E944904182F68
:101180008F3FB9F30E94E4041053F70111937F01DC
:10119000EC15FD0571F78FEF99E6A8E181509040BD
:1011A000A040E1F700C000000E948A059E859130B2
:1011B00029F48DED0E9499061E86BCC0AF85A13032
:1011C00009F09BC08EED0E9499060E948A0582E379
:1011D00091E00E94E8058FEF99E6A8E181509040E8
:1011E000A040E1F700C000000E948A0580E491E081
:1011F0000E94E80502E0442483E660E043E624E040
:101200000E944904182F8F3FB9F30E94E404440C54
:10121000842D880F880F480E90ED490E410E015025
:1012200059F782E061E00E94CE058BE491E00E94D4
:10123000E80502E0552483E660E043E624E00E94EE
:101240004904182F8F3FB9F30E94E404550C852DF3
:10125000880F880F580EA0ED5A0E510E015059F705
:101260000E948A0586E591E00E94E8058FEF99E6E5
:10127000A8E181509040A040E1F700C000000E942A
:101280008A0585E691E00E94E80502E0662483E68F
:1012900060E043E624E00E944904182F8F3FB9F331
:1012A0000E94E404660C862D880F880F680E90ED6E
:1012B000690E610E015059F782E061E00E94CE058F
:1012C00080E791E00E94E80502E0772483E660E091
:1012D00043E624E00E944904182F8F3FB9F30E948F
:1012E000E404770C872D880F880F780EA0ED7A0E16
:1012F000710E015059F71F861DC0B889B13049F4ED
:101300008FED0E9499068BE791E00E94E805188A0C
:1013100011C0ED85E13059F48CED0E9499061982D7
:101320001A821B821C821D821E821D8603C0C1017F
:101330000E94E8058FEF93EDA0E381509040A0401C
:10134000E1F700C000000E948A058CE00E9437058A
:101350008CE891E00E94E8058E010F5F1F4FEE249C
:10136000FF246894E2F8EC0EFD1E8FE798E3A1E0FD
:1013700081509040A040E1F700C00000D8018D915D
:101380008D010E9499068EE20E94E4040E151F054D
:1013900061F78E010C5F1F4F0F2EF7E0EF2EFF2439
:1013A000F02DEC0EFD1E8FE798E3A1E081509040F8
:1013B000A040E1F700C00000D8018D918D010E948E
:1013C00099068EE20E94E4040E151F0561F7842D34
:1013D0000E9499068EE20E94E4048FE798E3A1E060
:1013E00081509040A040E1F700C00000852D0E9490
:1013F00099068EE20E94E4048FE798E3A1E0815011
:101400009040A040E1F700C00000862D0E949906A0
:101410008EE20E94E4048FE798E3A1E081509040BF
:10142000A040E1F700C00000872D0E9499068EE2DF
:101430000E94E4048FE798E3A1E081509040A0402F
:10144000E1F700C0000080EF0E9499060E948A0523
:10145000EE2401E0F1CC91E0A91609F0EDCC0E9458
:101460008A05A1E08A1609F0E4CC8EEE0E94990666
:101470008FE798E3A1E081509040A040E1F700C0E1
:10148000000084E991E00E94E80582E061E00E94AA
:10149000CE050F2EF7E0CF2EDD24F02DCC0EDD1E75
:1014A0000F2EFDE08F2E9924F02D8C0E9D1E5601DF
:1014B00083E660E043E624E00E944904182F8F3F52
:1014C000B9F30E94E4041053D5011D935D01A815E2
:1014D000B90571F70E948A0584EA91E00E94E80547
:1014E0008FE798E3A1E081509040A040E1F700C071
:1014F0000000D6018D916D010E9499068EE20E9436
:10150000E4048C149D0461F714E08FE798E3A1E0F4
:1015100081509040A040E1F700C0000080E00E94B0
:1015200099068EE20E94E404115079F78FE798E360
:10153000A1E081509040A040E1F700C0000080EFA2
:101540000E9499068EE20E94E4048824AA2401E005
:1015500073CC1F920F920FB60F9211242F933F93CB
:101560004F935F936F937F938F939F93AF93BF93AB
:10157000EF93FF930E948A058CEA91E00E94E805B0
:1015800084E667E00E948106FF91EF91BF91AF91E1
:101590009F918F917F916F915F914F913F912F918B
:1015A0000F900FBE0F901F90189582B5886082BD76
:1015B00085B5816085BD85B5846085BD789489B722
:1015C000806489BF089521E63BE046EB5BE30E941F
:1015D000FB0B8D9A2FB52E7F2FBD2FB522602FBD0F
:1015E0002EB528602EBD2EB520612EBD462F572F5B
:1015F000682F792FCB01BA0120E030E040EC5FE3A7
:101600000E941A0B20E030E04AE754E40E94FB0BF2
:101610000E947E0BDC01CB019BBD8ABD8FE19EE465
:1016200097BD86BD8EB582608EBD8FB580688FBD3B
:1016300008955058BB27AA270ED0A3C094D030F0ED
:1016400099D020F031F49F3F11F41EF489C00EF4BC
:10165000E095E7FB7FC0E92FA5D080F3BA176207BA
:1016600073078407950718F071F49EF5BDC00EF45A
:10167000E0950B2EBA2FA02D0B01B90190010C01A2
:10168000CA01A0011124FF27591B99F0593F50F4BA
:10169000503E68F11A16F040A22F232F342F442712
:1016A000585FF3CF469537952795A795F04053950A
:1016B000C9F77EF41F16BA0B620B730B840BBAF0DA
:1016C0009150A1F0FF0FBB1F661F771F881FC2F745
:1016D0000EC0BA0F621F731F841F48F48795779559
:1016E0006795B795F7959E3F08F0B3CF9395880F10
:1016F00008F09927EE0F9795879508955BD088F0AD
:101700009F5790F0B92F9927B751A0F0D1F0660FED
:10171000771F881F991F1AF0BA95C9F712C0B13008
:1017200081F062D0B1E008955FC0672F782F8827DD
:10173000B85F39F0B93FCCF3869577956795B39547
:10174000D9F73EF490958095709561957F4F8F4FB6
:101750009F4F089597F99F6780E870E060E00895D3
:101760009FEF80EC089500240A94161617061806B9
:101770000906089500240A94121613061406050695
:101780000895092E0394000C11F4882352F0BB0F26
:1017900040F4BF2B11F460FF04C06F5F7F4F8F4F89
:1017A0009F4F089557FD9058440F551F59F05F3FC4
:1017B00071F04795880F97FB991F61F09F3F79F073
:1017C00087950895121613061406551FF2CF4695F5
:1017D000F1DF08C0161617061806991FF1CF869577
:1017E0007105610508940895E894BB27662777275B
:1017F000CB0197F908950BD0C4CFB5DF28F0BADF3D
:1018000018F0952309F0A6CFABCF1124EECFCADF95
:10181000A0F3959FD1F3950F50E0551F629FF00103
:10182000729FBB27F00DB11D639FAA27F00DB11D5C
:10183000AA1F649F6627B00DA11D661F829F2227E5
:10184000B00DA11D621F739FB00DA11D621F839F6C
:10185000A00D611D221F749F3327A00D611D231F42
:10186000849F600D211D822F762F6A2F11249F5790
:1018700050408AF0E1F088234AF0EE0FFF1FBB1FB3
:10188000661F771F881F91505040A9F79E3F510552
:1018900070F060CFAACF5F3FECF3983EDCF3869503
:1018A00077956795B795F795E7959F5FC1F7FE2BFD
:1018B000880F911D9695879597F9089597FB092EA6
:1018C00007260AD077FD04D02ED006D000201AF4C7
:1018D000709561957F4F0895F6F7909581959F4F8C
:1018E0000895A1E21A2EAA1BBB1BFD010DC0AA1F61
:1018F000BB1FEE1FFF1FA217B307E407F50720F079
:10190000A21BB30BE40BF50B661F771F881F991FF3
:101910001A9469F760957095809590959B01AC013C
:10192000BD01CF010895AA1BBB1B51E107C0AA1F2F
:10193000BB1FA617B70710F0A61BB70B881F991F70
:101940005A95A9F780959095BC01CD010895F8941A
:02195000FFCFC7
:101952003738392F3435362A3132332D43303D2B47
:101962002020202057656C636F6D650043686F6FA0
:10197200736520796F7572206D6F646500312D4D2E
:101982006F76656D656E7400322D53657474696E81
:1019920067730053656C656374204D6F6465003135
:1019A2002D506F696E742020322D736C6577003371
:1019B2002D747261636B2020342D686F6D65005742
:1019C200726F6E6720496E70757400312D536574A5
:1019D2002054696D6500322D436865636B204D6F3D
:1019E20064650053657474696E672054696D65009F
:1019F200436865636B696E67204D6F6465204F4E67
:101A020000486F6D696E67204D6F6465204F4E0010
:101A1200446567726565313A00446567726565328F
:101A22003A0046697273742074696D653E3E3E00E9
:101A32005365636F6E64735F313A004D696E7574FE
:101A420065735F313A005365636F6E642074696D2C
:101A5200653E3E3E005365636F6E64735F323A00CB
:101A62004D696E757465735F323A004E6F74207003
:101A7200726F7669646564207965740053656E647B
:101A8200696E6700486F7572733A4D696E733A53A7
:101A92006563730073656E64696E6700486561749F
:0C1AA200205761726E696E6721212100DF
:00000001FF
