:100000000C942A000C9447000C9447000C94470071
:100010000C9447000C9447000C9447000C94470044
:100020000C9447000C9447000C9447000C94470034
:100030000C9447000C9447000C9447000C94470024
:100040000C9447000C9447000C9447000C94470014
:100050000C94470011241FBECFE5D8E0DEBFCDBF12
:1000600010E0A0E6B0E0E2E4FEE002C005900D92F0
:10007000A43AB107D9F710E0A4EAB0E001C01D929C
:10008000A43AB107E1F70E94FB050C941F070C94FA
:100090000000843409F471C0853448F4823499F145
:1000A000833408F04DC0813409F083C00FC082361C
:1000B00051F1833620F4813609F07BC007C08336C6
:1000C00009F43EC0843609F074C057C0413069F469
:1000D0002AB381E090E0AC0102C0440F551F6A953D
:1000E000E2F7BA01622B6ABB08952AB381E090E07F
:1000F000AC0102C0440F551F6A95E2F7BA01609542
:1001000062236ABB0895413069F427B381E090E02F
:10011000AC0102C0440F551F6A95E2F7BA01622B89
:1001200067BB089527B381E090E0AC0102C0440FA3
:10013000551F6A95E2F7BA016095622367BB08957F
:10014000413069F424B381E090E0AC0102C0440F77
:10015000551F6A95E2F7BA01622B64BB089524B378
:1001600081E090E0AC0102C0440F551F6A95E2F7B0
:10017000BA016095622364BB0895413069F421B3EC
:1001800081E090E0AC0102C0440F551F6A95E2F790
:10019000BA01622B61BB089521B381E090E0AC010C
:1001A00002C0440F551F6A95E2F7BA0160956223B9
:1001B00061BB0895843409F471C0853448F48234F5
:1001C00099F1833408F04DC0813409F083C00FC029
:1001D000823651F1833620F4813609F07BC007C0A6
:1001E000833609F43EC0843609F074C057C04130EC
:1001F00069F42BB381E090E0AC0102C0440F551FBD
:100200006A95E2F7BA01622B6BBB08952BB381E0CC
:1002100090E0AC0102C0440F551F6A95E2F7BA01A5
:10022000609562236BBB0895413069F428B381E087
:1002300090E0AC0102C0440F551F6A95E2F7BA0185
:10024000622B68BB089528B381E090E0AC0102C046
:10025000440F551F6A95E2F7BA016095622368BBA7
:100260000895413069F425B381E090E0AC0102C00B
:10027000440F551F6A95E2F7BA01622B65BB0895DA
:1002800025B381E090E0AC0102C0440F551F6A9590
:10029000E2F7BA016095622365BB0895413069F4C5
:1002A00022B381E090E0AC0102C0440F551F6A9573
:1002B000E2F7BA01622B62BB089522B381E090E0BD
:1002C000AC0102C0440F551F6A95E2F7BA01609570
:1002D000622362BB0895843409F43DC0853440F440
:1002E0008234F9F0833450F5813409F040C00CC0F9
:1002F0008236B9F0833618F48136C9F505C08336E5
:10030000E9F08436A1F527C02BB381E090E0AC0181
:1003100002C0440F551F6A95E2F7BA0162276BBB12
:10032000089528B381E090E0AC0102C0440F551F4E
:100330006A95E2F7BA01622768BB089525B381E0A8
:1003400090E0AC0102C0440F551F6A95E2F7BA0174
:10035000622765BB089522B381E090E0AC0102C042
:10036000440F551F6A95E2F7BA01622762BB0895F0
:10037000843409F451C0853440F4823439F1833433
:10038000C0F5813409F05AC00EC08236F9F08336C8
:1003900020F4813609F052C006C0833651F184360C
:1003A00009F04CC039C029B381E090E0062E02C0AC
:1003B000880F991F0A94E2F730E08223932302C04A
:1003C000969587956A95E2F7982F38C026B381E015
:1003D00090E0062E02C0880F991F0A94E2F730E0E1
:1003E0008223932302C0969587956A95E2F7982F0A
:1003F00025C023B381E090E0062E02C0880F991F2C
:100400000A94E2F730E08223932302C09695879501
:100410006A95E2F7982F12C020B381E090E0062E93
:1004200002C0880F991F0A94E2F730E082239323D9
:1004300002C0969587956A95E2F7982F892F0895BF
:100440008434D9F0853438F4823499F0833498F4C4
:100450008134A1F40CC0823661F0833618F4813601
:1004600069F405C0833639F0843641F406C06ABBAE
:10047000089567BB089564BB089561BB08958434F3
:10048000D9F0853438F4823499F0833498F4813487
:10049000A1F40CC0823661F0833618F4813669F419
:1004A00005C0833639F0843641F406C06BBB08952D
:1004B00068BB089565BB089562BB0895843409F153
:1004C000853438F48234A9F08334B8F48134E1F40B
:1004D0000CC0823671F0833618F48136A9F405C059
:1004E000833659F0843681F40CC08BB380958BBB76
:1004F000089588B3809588BB089585B3809585BBA2
:10050000089582B3809582BB08958434D9F08534F0
:1005100038F4823499F0833498F48134A1F40CC017
:10052000823661F0833618F4813669F405C083366B
:1005300039F0843641F406C08BB3089588B308952A
:1005400085B3089582B30895843409F471C0853465
:1005500048F4823499F1833408F04DC0813409F0B5
:1005600083C00FC0823651F1833620F4813609F002
:100570007BC007C0833609F43EC0843609F074C0DE
:1005800057C0413069F42BB381E090E0AC0102C068
:10059000440F551F6A95E2F7BA01622B6BBB0895B1
:1005A0002BB381E090E0AC0102C0440F551F6A9567
:1005B000E2F7BA01609562236BBB0895413069F49C
:1005C00028B381E090E0AC0102C0440F551F6A954A
:1005D000E2F7BA01622B68BB089528B381E090E08E
:1005E000AC0102C0440F551F6A95E2F7BA0160954D
:1005F000622368BB0895413069F425B381E090E03F
:10060000AC0102C0440F551F6A95E2F7BA01622B94
:1006100065BB089525B381E090E0AC0102C0440FB2
:10062000551F6A95E2F7BA016095622365BB08958C
:10063000413069F422B381E090E0AC0102C0440F84
:10064000551F6A95E2F7BA01622B62BB089522B387
:1006500081E090E0AC0102C0440F551F6A95E2F7BB
:10066000BA016095622362BB08959FBB8EBB6DBBD0
:10067000E29AE19AE199FECF08959FBB8EBBE09A82
:100680008DB308954F925F926F927F928F929F9257
:10069000AF92BF92CF92DF92EF92FF920F931F9390
:1006A000CF93DF93F82EE42E00E010E0C62EDD2479
:1006B000822E992456010894A11CB11C662477242B
:1006C000689461F86C0C7D1C0F2EF3E04F2E5524BE
:1006D000F02D4C0C5D1CB8016C0D7D1D8F2D90E034
:1006E00041E050E00E944900E801C80DD91D8E2D5F
:1006F00090E0BE0140E050E00E9449008E2D90E065
:10070000BE0141E050E00E94A4028F2D90E0B601AE
:1007100041E050E00E94DA008F2D90E0B50141E009
:1007200050E00E94DA008F2D90E0B30141E050E0EC
:100730000E94DA008F2D90E0B20141E050E00E946B
:10074000DA000F5F1F4F0430110529F6DF91CF91BA
:100750001F910F91FF90EF90DF90CF90BF90AF90DF
:100760009F908F907F906F905F904F9008952F9201
:100770003F924F925F926F927F928F929F92AF9231
:10078000BF92CF92DF92EF92FF920F931F93CF937E
:10079000DF9300D000D0CDB7DEB7682ECC24DD24A7
:1007A000862F90E09A8389837724822E9924F42ED1
:1007B000E72C160149805A804C0C5D1C862D972D24
:1007C000B20140E050E00E94DA001C821B82AB8044
:1007D000BC808501080D191D8F2D9E2DB8010E942A
:1007E000B8010097E1F48F2D9E2DB8010E94B80149
:1007F0000097C9F3C101880F991F880F991F8A0DAF
:100800009B1D805A9F4FFC010081862D972DB201C0
:1008100041E050E00E94DA000F3F51F012C08B819E
:100820009C8101969C838B838430910581F621C045
:100830000894C11CD11C94E0C916D10409F0B9CFA9
:100840000FEF802F0F900F900F900F90DF91CF91AF
:100850001F910F91FF90EF90DF90CF90BF90AF90DE
:100860009F908F907F906F905F904F903F902F90D0
:100870000895862D972DB20141E050E00E94DA00E4
:10088000D7CF83E665E041E00E94DA008FE99FE080
:100890000197F1F700C0000083E665E040E00E94A8
:1008A000DA000895AF92BF92CF92DF92EF92FF925B
:1008B0000F931F93CF93DF93C0E0D0E013E00F2E90
:1008C000F7E0EF2EFF24F02DCC24DD24C394A82ED6
:1008D000BB2403E0A7014C1B5D0BC601042E02C024
:1008E000880F991F0A94E2F78A219B219C0102C07C
:1008F000369527954A95E2F7A90183E6612F0E9474
:10090000DA00C33021F0C73011F0115008C083E67F
:1009100064E041E00E94DA000E944104102F219619
:10092000C830D105B9F68FEC97E00197F1F700C018
:100930000000DF91CF911F910F91FF90EF90DF901A
:10094000CF90BF90AF900895AF92BF92CF92DF92B9
:10095000EF92FF920F931F93CF93DF93C0E0D0E00D
:1009600013E00F2EF7E0EF2EFF24F02DCC24DD2432
:10097000C394A82EBB2403E0A7014C1B5D0BC6014A
:10098000042E02C0880F991F0A94E2F78A219B2146
:100990009C0102C0369527954A95E2F7A90183E6A6
:1009A000612F0E94DA00C33021F0C73011F01150DE
:1009B00008C083E664E040E00E94DA000E9441043F
:1009C000102F2196C830D105B9F68FEC97E001972A
:1009D000F1F700C00000DF91CF911F910F91FF90C0
:1009E000EF90DF90CF90BF90AF90089581E00E948C
:1009F000A4048FE19EE40197F1F700C00000089580
:100A0000CF938FE798E3A1E081509040A040E1F7B9
:100A100000C00000C0E083E66C2F41E00E94490066
:100A2000CF5FC430C1F783E665E041E00E94490032
:100A300083E664E041E00E94490082E00E94A40451
:100A4000AFE0B7E21197F1F700C0000088E20E9422
:100A5000A4048EE00E94A40481E00E94A4048FE01C
:100A600097E20197F1F700C0000086E00E94A4041D
:100A7000CF910895982F9150923020F4613110F465
:100A8000662321F480E80E94A4040895813029F4AB
:100A9000862F81580E94A4040895823021F4862F65
:100AA00081540E94A4040895CF93DF93EC018881C0
:100AB000882331F021960E94520489918823D9F726
:100AC000DF91CF910895262F372F220F331FA901D1
:100AD000440F551F440F551F240F351F90E0C0973A
:100AE000820F931F0895EF92FF920F931F93CF935E
:100AF000DF937C01009721F480E30E94520440C000
:100B00008AE0E816F1042CF48E2D805D0E945204D8
:100B100037C0C701C1E0D0E0EAE0F0E0BF010E94C9
:100B2000F806CB019E01220F331FCC0FDD1FCC0F27
:100B3000DD1FCC0FDD1FC20FD31F6A30710574F7A4
:100B4000CA30D105ACF00AE010E0C701BE010E9436
:100B5000F806CB01B8010E94F806805D0E9452049D
:100B6000CE01B8010E94F806EB016A3071056CF7FE
:100B7000C7016AE070E00E94F806805D0E9452049E
:100B8000DF91CF911F910F91FF90EF90089541E079
:100B90000E944900089540E00E9449000895CF93C3
:100BA000DF93D82FC62F40E00E9449008D2F6C2F75
:100BB00041E00E94A402DF91CF910895CF93DF938B
:100BC000D82FC62F40E00E9449008D2F6C2F40E0A7
:100BD0000E94A402DF91CF91089541E00E94DA00C3
:100BE000089540E00E94DA0008950E946B01089584
:100BF0000E94B80108950E94000584E660E044E682
:100C000024E00E94420381E660E00E94C70581E67D
:100C100061E00E94C70580E090E00E943D038F3FA5
:100C2000B9F580E790E00E945405EE24FF24C1E06E
:100C300084E660E044E624E00E94B703D82F8F3FAB
:100C4000B9F30E9452048C2F90E06D2F0E9435035F
:100C50008FEF92E5A7E081509040A040E1F700C0FF
:100C6000000080E10E94A4048AE20E9452048C2FBA
:100C700090E00E943D03B7010E9463057C01CF5FB5
:100C8000C530B0F280E090E060E00E9435030FC014
:100C90008AE790E00E9454058FEF96E1A1E1815030
:100CA0009040A040E1F700C00000EE24FF240E9425
:100CB000F60482E890E00E94540500E010E0D0E0E5
:100CC0000F2EF2E8CF2EF0E0DF2EF02DAA24BB2469
:100CD0000F2EF5E98F2EF0E09F2EF02D0F2EFEE85F
:100CE0006F2EF0E07F2EF02D81E661E00E94ED0591
:100CF00084E660E044E624E00E94B703C82F8F3FFB
:100D0000C1F00E9452048FEF92E5A7E0815090401D
:100D1000A040E1F700C0000080E10E94A4048AE244
:100D20000E9452048C2FB8010E9463058C01DF5F82
:100D3000DBCFD430C9F60E94F6040E151F05C9F4A6
:100D4000C3010E94540581E660E00E94ED0581E642
:100D500061E00E94F1058FEF91E1AAE78150904098
:100D6000A040E1F700C0000081E660E00E94F105CC
:100D700037C0C4010E94540581E661E00E94F50578
:100D80008FEF94E3ACE081509040A040E1F700C0C9
:100D9000000081E661E00E94F5058FEF94E3ACE08E
:100DA00081509040A040E1F700C0000081E661E082
:100DB0000E94F5058FEF94E3ACE081509040A04095
:100DC000E1F700C0000081E661E00E94F5058FEFC9
:100DD00091E1AAE781509040A040E1F700C00000F7
:100DE0000E94F604C6010E9454058501D0E07CCF24
:100DF00097FB092E07260AD077FD04D00CD006D029
:100E000000201AF4709561957F4F0895F6F790953C
:100E100081959F4F0895AA1BBB1B51E107C0AA1FD4
:100E2000BB1FA617B70710F0A61BB70B881F991F8B
:100E30005A95A9F780959095BC01CD010895F89435
:020E4000FFCFE2
:100E42003738392F3435362A3132332D43303D2B62
:100E520053657420506173733A0057656C636F6D0C
:100E62006500456E74657220706173733A004F704D
:100E7200656E65640057726F6E6720506173737799
:040E82006F72640027
:00000001FF
